{
  "contractName": "Bidding",
  "abi": [
    {
      "inputs": [
        {
          "internalType": "contract IBidC",
          "name": "token",
          "type": "address"
        },
        {
          "internalType": "contract IBidCNFT",
          "name": "NFT",
          "type": "address"
        }
      ],
      "stateMutability": "nonpayable",
      "type": "constructor"
    },
    {
      "inputs": [
        {
          "internalType": "uint256",
          "name": "",
          "type": "uint256"
        },
        {
          "internalType": "uint256",
          "name": "",
          "type": "uint256"
        }
      ],
      "name": "_bids",
      "outputs": [
        {
          "internalType": "address",
          "name": "bidder",
          "type": "address"
        },
        {
          "internalType": "uint256",
          "name": "price",
          "type": "uint256"
        }
      ],
      "stateMutability": "view",
      "type": "function",
      "constant": true
    },
    {
      "inputs": [],
      "name": "burnAddr",
      "outputs": [
        {
          "internalType": "address",
          "name": "",
          "type": "address"
        }
      ],
      "stateMutability": "view",
      "type": "function",
      "constant": true
    },
    {
      "inputs": [],
      "name": "owner",
      "outputs": [
        {
          "internalType": "address",
          "name": "",
          "type": "address"
        }
      ],
      "stateMutability": "view",
      "type": "function",
      "constant": true
    },
    {
      "inputs": [
        {
          "internalType": "string",
          "name": "bidJSON",
          "type": "string"
        }
      ],
      "name": "createBid",
      "outputs": [
        {
          "internalType": "uint256",
          "name": "",
          "type": "uint256"
        }
      ],
      "stateMutability": "nonpayable",
      "type": "function"
    },
    {
      "inputs": [
        {
          "internalType": "uint256",
          "name": "nftId",
          "type": "uint256"
        },
        {
          "internalType": "uint256",
          "name": "amount",
          "type": "uint256"
        }
      ],
      "name": "addBid",
      "outputs": [
        {
          "internalType": "bool",
          "name": "",
          "type": "bool"
        }
      ],
      "stateMutability": "nonpayable",
      "type": "function"
    },
    {
      "inputs": [
        {
          "internalType": "uint256",
          "name": "nftId",
          "type": "uint256"
        }
      ],
      "name": "viewBids",
      "outputs": [
        {
          "components": [
            {
              "internalType": "address",
              "name": "bidder",
              "type": "address"
            },
            {
              "internalType": "uint256",
              "name": "price",
              "type": "uint256"
            }
          ],
          "internalType": "struct Bidding.Bid[]",
          "name": "",
          "type": "tuple[]"
        }
      ],
      "stateMutability": "view",
      "type": "function",
      "constant": true
    },
    {
      "inputs": [
        {
          "internalType": "uint256",
          "name": "nftId",
          "type": "uint256"
        }
      ],
      "name": "claimBid",
      "outputs": [
        {
          "internalType": "bool",
          "name": "",
          "type": "bool"
        }
      ],
      "stateMutability": "nonpayable",
      "type": "function"
    },
    {
      "inputs": [],
      "name": "currentBalance",
      "outputs": [
        {
          "internalType": "uint256",
          "name": "",
          "type": "uint256"
        }
      ],
      "stateMutability": "view",
      "type": "function",
      "constant": true
    },
    {
      "inputs": [],
      "name": "getAllowance",
      "outputs": [
        {
          "internalType": "uint256",
          "name": "",
          "type": "uint256"
        }
      ],
      "stateMutability": "view",
      "type": "function",
      "constant": true
    }
  ],
  "bytecode": "0x6080604052336000806101000a81548173ffffffffffffffffffffffffffffffffffffffff021916908373ffffffffffffffffffffffffffffffffffffffff1602179055506000600160006101000a81548173ffffffffffffffffffffffffffffffffffffffff021916908373ffffffffffffffffffffffffffffffffffffffff1602179055503480156200009357600080fd5b5060405162001d4138038062001d418339818101604052810190620000b9919062000171565b81600260006101000a81548173ffffffffffffffffffffffffffffffffffffffff021916908373ffffffffffffffffffffffffffffffffffffffff16021790555080600360006101000a81548173ffffffffffffffffffffffffffffffffffffffff021916908373ffffffffffffffffffffffffffffffffffffffff160217905550505062000242565b60008151905062000154816200020e565b92915050565b6000815190506200016b8162000228565b92915050565b600080604083850312156200018557600080fd5b600062000195858286016200015a565b9250506020620001a88582860162000143565b9150509250929050565b6000620001bf82620001ee565b9050919050565b6000620001d382620001b2565b9050919050565b6000620001e782620001b2565b9050919050565b600073ffffffffffffffffffffffffffffffffffffffff82169050919050565b6200021981620001c6565b81146200022557600080fd5b50565b6200023381620001da565b81146200023f57600080fd5b50565b611aef80620002526000396000f3fe608060405234801561001057600080fd5b50600436106100935760003560e01c80638da5cb5b116100665780638da5cb5b14610159578063973e9b8b14610177578063ce845d1d14610195578063d246d411146101b3578063f92339c8146101d157610093565b8063084929401461009857806321113057146100c857806321b23f04146100f857806373280b4914610128575b600080fd5b6100b260048036038101906100ad91906113af565b610201565b6040516100bf91906116a3565b60405180910390f35b6100e260048036038101906100dd91906113af565b6102d3565b6040516100ef91906116c5565b60405180910390f35b610112600480360381019061010d9190611401565b610877565b60405161011f91906116c5565b60405180910390f35b610142600480360381019061013d9190611401565b610f67565b60405161015092919061167a565b60405180910390f35b610161610fc8565b60405161016e91906115cf565b60405180910390f35b61017f610fec565b60405161018c9190611740565b60405180910390f35b61019d6110a0565b6040516101aa9190611740565b60405180910390f35b6101bb611152565b6040516101c891906115cf565b60405180910390f35b6101eb60048036038101906101e6919061136e565b611178565b6040516101f89190611740565b60405180910390f35b606060046000838152602001908152602001600020805480602002602001604051908101604052809291908181526020016000905b828210156102c857838290600052602060002090600202016040518060400160405290816000820160009054906101000a900473ffffffffffffffffffffffffffffffffffffffff1673ffffffffffffffffffffffffffffffffffffffff1673ffffffffffffffffffffffffffffffffffffffff16815260200160018201548152505081526020019060010190610236565b505050509050919050565b60008060046000848152602001908152602001600020805480602002602001604051908101604052809291908181526020016000905b8282101561039b57838290600052602060002090600202016040518060400160405290816000820160009054906101000a900473ffffffffffffffffffffffffffffffffffffffff1673ffffffffffffffffffffffffffffffffffffffff1673ffffffffffffffffffffffffffffffffffffffff16815260200160018201548152505081526020019060010190610309565b505050509050600081600183516103b29190611806565b815181106103e9577f4e487b7100000000000000000000000000000000000000000000000000000000600052603260045260246000fd5b602002602001015190506000600360009054906101000a900473ffffffffffffffffffffffffffffffffffffffff1673ffffffffffffffffffffffffffffffffffffffff16636352211e866040518263ffffffff1660e01b81526004016104509190611740565b60206040518083038186803b15801561046857600080fd5b505afa15801561047c573d6000803e3d6000fd5b505050506040513d601f19601f820116820180604052508101906104a0919061131c565b90508073ffffffffffffffffffffffffffffffffffffffff163373ffffffffffffffffffffffffffffffffffffffff1614610510576040517f08c379a0000000000000000000000000000000000000000000000000000000008152600401610507906116e0565b60405180910390fd5b600360009054906101000a900473ffffffffffffffffffffffffffffffffffffffff1673ffffffffffffffffffffffffffffffffffffffff166323b872dd82600160009054906101000a900473ffffffffffffffffffffffffffffffffffffffff16886040518463ffffffff1660e01b815260040161059193929190611613565b600060405180830381600087803b1580156105ab57600080fd5b505af11580156105bf573d6000803e3d6000fd5b50505050600260009054906101000a900473ffffffffffffffffffffffffffffffffffffffff1673ffffffffffffffffffffffffffffffffffffffff166323b872dd60008054906101000a900473ffffffffffffffffffffffffffffffffffffffff168385602001516040518463ffffffff1660e01b815260040161064693929190611613565b602060405180830381600087803b15801561066057600080fd5b505af1158015610674573d6000803e3d6000fd5b505050506040513d601f19601f820116820180604052508101906106989190611345565b5082600184516106a89190611806565b815181106106df577f4e487b7100000000000000000000000000000000000000000000000000000000600052603260045260246000fd5b602002602001016106ee611230565b81525060005b835181101561086a57600260009054906101000a900473ffffffffffffffffffffffffffffffffffffffff1673ffffffffffffffffffffffffffffffffffffffff166323b872dd60008054906101000a900473ffffffffffffffffffffffffffffffffffffffff16868481518110610795577f4e487b7100000000000000000000000000000000000000000000000000000000600052603260045260246000fd5b6020026020010151600001518785815181106107da577f4e487b7100000000000000000000000000000000000000000000000000000000600052603260045260246000fd5b6020026020010151602001516040518463ffffffff1660e01b815260040161080493929190611613565b602060405180830381600087803b15801561081e57600080fd5b505af1158015610832573d6000803e3d6000fd5b505050506040513d601f19601f820116820180604052508101906108569190611345565b508080610862906118f5565b9150506106f4565b5060019350505050919050565b6000600360009054906101000a900473ffffffffffffffffffffffffffffffffffffffff1673ffffffffffffffffffffffffffffffffffffffff16634f558e79846040518263ffffffff1660e01b81526004016108d49190611740565b60206040518083038186803b1580156108ec57600080fd5b505afa158015610900573d6000803e3d6000fd5b505050506040513d601f19601f820116820180604052508101906109249190611345565b610963576040517f08c379a000000000000000000000000000000000000000000000000000000000815260040161095a90611720565b60405180910390fd5b600060046000858152602001908152602001600020805480602002602001604051908101604052809291908181526020016000905b82821015610a2a57838290600052602060002090600202016040518060400160405290816000820160009054906101000a900473ffffffffffffffffffffffffffffffffffffffff1673ffffffffffffffffffffffffffffffffffffffff1673ffffffffffffffffffffffffffffffffffffffff16815260200160018201548152505081526020019060010190610998565b50505050905060005b8151811015610aa55783828281518110610a76577f4e487b7100000000000000000000000000000000000000000000000000000000600052603260045260246000fd5b60200260200101516020015110610a9257600092505050610f61565b8080610a9d906118f5565b915050610a33565b5060006040518060400160405280600160009054906101000a900473ffffffffffffffffffffffffffffffffffffffff1673ffffffffffffffffffffffffffffffffffffffff1681526020016000815250905060005b8251811015610bd3573373ffffffffffffffffffffffffffffffffffffffff16838281518110610b54577f4e487b7100000000000000000000000000000000000000000000000000000000600052603260045260246000fd5b60200260200101516000015173ffffffffffffffffffffffffffffffffffffffff161415610bc057828181518110610bb5577f4e487b7100000000000000000000000000000000000000000000000000000000600052603260045260246000fd5b602002602001015191505b8080610bcb906118f5565b915050610afb565b506000600160009054906101000a900473ffffffffffffffffffffffffffffffffffffffff1673ffffffffffffffffffffffffffffffffffffffff16826000015173ffffffffffffffffffffffffffffffffffffffff1614610c4657816020015185610c3f9190611806565b9050610c4a565b8490505b80600260009054906101000a900473ffffffffffffffffffffffffffffffffffffffff1673ffffffffffffffffffffffffffffffffffffffff166370a08231336040518263ffffffff1660e01b8152600401610ca691906115cf565b60206040518083038186803b158015610cbe57600080fd5b505afa158015610cd2573d6000803e3d6000fd5b505050506040513d601f19601f82011682018060405250810190610cf691906113d8565b1015610d37576040517f08c379a0000000000000000000000000000000000000000000000000000000008152600401610d2e90611700565b60405180910390fd5b600260009054906101000a900473ffffffffffffffffffffffffffffffffffffffff1673ffffffffffffffffffffffffffffffffffffffff1663095ea7b330876040518363ffffffff1660e01b8152600401610d9492919061167a565b602060405180830381600087803b158015610dae57600080fd5b505af1158015610dc2573d6000803e3d6000fd5b505050506040513d601f19601f82011682018060405250810190610de69190611345565b50600260009054906101000a900473ffffffffffffffffffffffffffffffffffffffff1673ffffffffffffffffffffffffffffffffffffffff166323b872dd3330846040518463ffffffff1660e01b8152600401610e4693929190611613565b602060405180830381600087803b158015610e6057600080fd5b505af1158015610e74573d6000803e3d6000fd5b505050506040513d601f19601f82011682018060405250810190610e989190611345565b50600060405180604001604052803373ffffffffffffffffffffffffffffffffffffffff1681526020018781525090506004600088815260200190815260200160002081908060018154018082558091505060019003906000526020600020906002020160009091909190915060008201518160000160006101000a81548173ffffffffffffffffffffffffffffffffffffffff021916908373ffffffffffffffffffffffffffffffffffffffff16021790555060208201518160010155505060019450505050505b92915050565b60046020528160005260406000208181548110610f8357600080fd5b9060005260206000209060020201600091509150508060000160009054906101000a900473ffffffffffffffffffffffffffffffffffffffff16908060010154905082565b60008054906101000a900473ffffffffffffffffffffffffffffffffffffffff1681565b6000600260009054906101000a900473ffffffffffffffffffffffffffffffffffffffff1673ffffffffffffffffffffffffffffffffffffffff1663dd62ed3e30336040518363ffffffff1660e01b815260040161104b9291906115ea565b60206040518083038186803b15801561106357600080fd5b505afa158015611077573d6000803e3d6000fd5b505050506040513d601f19601f8201168201806040525081019061109b91906113d8565b905090565b6000600260009054906101000a900473ffffffffffffffffffffffffffffffffffffffff1673ffffffffffffffffffffffffffffffffffffffff166370a08231336040518263ffffffff1660e01b81526004016110fd91906115cf565b60206040518083038186803b15801561111557600080fd5b505afa158015611129573d6000803e3d6000fd5b505050506040513d601f19601f8201168201806040525081019061114d91906113d8565b905090565b600160009054906101000a900473ffffffffffffffffffffffffffffffffffffffff1681565b6000600360009054906101000a900473ffffffffffffffffffffffffffffffffffffffff1673ffffffffffffffffffffffffffffffffffffffff1663a02d728233846040518363ffffffff1660e01b81526004016111d792919061164a565b602060405180830381600087803b1580156111f157600080fd5b505af1158015611205573d6000803e3d6000fd5b505050506040513d601f19601f8201168201806040525081019061122991906113d8565b9050919050565b6040518060400160405280600073ffffffffffffffffffffffffffffffffffffffff168152602001600081525090565b600061127361126e84611780565b61175b565b90508281526020810184848401111561128b57600080fd5b611296848285611882565b509392505050565b6000815190506112ad81611a74565b92915050565b6000815190506112c281611a8b565b92915050565b600082601f8301126112d957600080fd5b81356112e9848260208601611260565b91505092915050565b60008135905061130181611aa2565b92915050565b60008151905061131681611aa2565b92915050565b60006020828403121561132e57600080fd5b600061133c8482850161129e565b91505092915050565b60006020828403121561135757600080fd5b6000611365848285016112b3565b91505092915050565b60006020828403121561138057600080fd5b600082013567ffffffffffffffff81111561139a57600080fd5b6113a6848285016112c8565b91505092915050565b6000602082840312156113c157600080fd5b60006113cf848285016112f2565b91505092915050565b6000602082840312156113ea57600080fd5b60006113f884828501611307565b91505092915050565b6000806040838503121561141457600080fd5b6000611422858286016112f2565b9250506020611433858286016112f2565b9150509250929050565b60006114498383611582565b60408301905092915050565b61145e8161183a565b82525050565b61146d8161183a565b82525050565b600061147e826117c1565b61148881856117e4565b9350611493836117b1565b8060005b838110156114c45781516114ab888261143d565b97506114b6836117d7565b925050600181019050611497565b5085935050505092915050565b6114da8161184c565b82525050565b60006114eb826117cc565b6114f581856117f5565b9350611505818560208601611891565b61150e8161199c565b840191505092915050565b6000611526602c836117f5565b9150611531826119ad565b604082019050919050565b6000611549602c836117f5565b9150611554826119fc565b604082019050919050565b600061156c6016836117f5565b915061157782611a4b565b602082019050919050565b6040820160008201516115986000850182611455565b5060208201516115ab60208501826115b1565b50505050565b6115ba81611878565b82525050565b6115c981611878565b82525050565b60006020820190506115e46000830184611464565b92915050565b60006040820190506115ff6000830185611464565b61160c6020830184611464565b9392505050565b60006060820190506116286000830186611464565b6116356020830185611464565b61164260408301846115c0565b949350505050565b600060408201905061165f6000830185611464565b818103602083015261167181846114e0565b90509392505050565b600060408201905061168f6000830185611464565b61169c60208301846115c0565b9392505050565b600060208201905081810360008301526116bd8184611473565b905092915050565b60006020820190506116da60008301846114d1565b92915050565b600060208201905081810360008301526116f981611519565b9050919050565b600060208201905081810360008301526117198161153c565b9050919050565b600060208201905081810360008301526117398161155f565b9050919050565b600060208201905061175560008301846115c0565b92915050565b6000611765611776565b905061177182826118c4565b919050565b6000604051905090565b600067ffffffffffffffff82111561179b5761179a61196d565b5b6117a48261199c565b9050602081019050919050565b6000819050602082019050919050565b600081519050919050565b600081519050919050565b6000602082019050919050565b600082825260208201905092915050565b600082825260208201905092915050565b600061181182611878565b915061181c83611878565b92508282101561182f5761182e61193e565b5b828203905092915050565b600061184582611858565b9050919050565b60008115159050919050565b600073ffffffffffffffffffffffffffffffffffffffff82169050919050565b6000819050919050565b82818337600083830152505050565b60005b838110156118af578082015181840152602081019050611894565b838111156118be576000848401525b50505050565b6118cd8261199c565b810181811067ffffffffffffffff821117156118ec576118eb61196d565b5b80604052505050565b600061190082611878565b91507fffffffffffffffffffffffffffffffffffffffffffffffffffffffffffffffff8214156119335761193261193e565b5b600182019050919050565b7f4e487b7100000000000000000000000000000000000000000000000000000000600052601160045260246000fd5b7f4e487b7100000000000000000000000000000000000000000000000000000000600052604160045260246000fd5b6000601f19601f8301169050919050565b7f596f75206d75737420626520746865206f776e6572206f66207468652062696460008201527f20746f20636c61696d2069740000000000000000000000000000000000000000602082015250565b7f596f7520646f6e277420686176652074686520616d6f756e7420796f7527726560008201527f2062696464696e6720666f720000000000000000000000000000000000000000602082015250565b7f546865204e465420646f65736e27742065786973747300000000000000000000600082015250565b611a7d8161183a565b8114611a8857600080fd5b50565b611a948161184c565b8114611a9f57600080fd5b50565b611aab81611878565b8114611ab657600080fd5b5056fea26469706673582212206c2acf7be757153041cc1f74f294a7ea9e6a7e58a60d7ad9cc9dc4534bb1f10964736f6c63430008040033",
  "immutableReferences": {},
  "source": "// SPDX-License-Identifier: GNU3\r\npragma solidity >=0.4.22 <=0.8.6;\r\nimport \"./IBidC.sol\";\r\nimport \"./IBidCNFT.sol\";\r\n\r\ncontract Bidding {\r\n    address public owner = msg.sender;\r\n    address public burnAddr = 0x0000000000000000000000000000000000000000;\r\n\r\n    IBidC private _token;\r\n    IBidCNFT private _NFT;\r\n\r\n    struct Bid {\r\n        address bidder;\r\n        uint256 price;\r\n    }\r\n\r\n    mapping(uint256 => Bid[]) public _bids;\r\n\r\n    constructor(IBidC token, IBidCNFT NFT) {\r\n        _token = token;\r\n        _NFT = NFT;\r\n    }\r\n\r\n    modifier restricted() {\r\n        require(\r\n            msg.sender == owner,\r\n            \"This function is restricted to the contract's owner\"\r\n        );\r\n        _;\r\n    }\r\n\r\n    function createBid(string memory bidJSON) public returns (uint256){\r\n        return _NFT.createBid(msg.sender, bidJSON);\r\n    }\r\n\r\n    function addBid(uint256 nftId,uint256 amount) public returns (bool){\r\n        // On vrifie que le NFT existe bien\r\n        require(_NFT.exists(nftId),\"The NFT doesn't exists\");\r\n            \r\n        /* \r\n        * On vrifie toutes les enchres en cours\r\n        * si une est dj existante a + cher ou au mme prix\r\n        * on renvoie false\r\n        */ \r\n        Bid[] memory currentBids = _bids[nftId];\r\n        for(uint256 i = 0; i < currentBids.length; i++){\r\n            if(currentBids[i].price >= amount){\r\n                return false;\r\n            }\r\n        }\r\n\r\n        // On vrifie si la personne a dj enchri\r\n        Bid memory alreadyBid = Bid(burnAddr,0);\r\n        for(uint256 i = 0; i < currentBids.length; i++){\r\n            if(currentBids[i].bidder == msg.sender){\r\n                alreadyBid = currentBids[i];\r\n            }\r\n        }\r\n\r\n        /**\r\n        * si la personne a dj enchri, on bloque la diffrence entre la dernire enchre\r\n        * et la nouvelle, sinon on bloque la somme entire\r\n        */\r\n        uint256 lockedAmount = 0;\r\n        if (alreadyBid.bidder != burnAddr){\r\n            lockedAmount = (amount - alreadyBid.price);\r\n        }else{\r\n            lockedAmount = amount;\r\n        }\r\n\r\n        // Si la personne qui enchrit n'a pas l'argent ncssaire\r\n        require(_token.balanceOf(msg.sender) >= lockedAmount,\"You don't have the amount you're bidding for\");\r\n\r\n        // On bloque sur le compte du owner la somme de l'enchre\r\n        _token.approve(address(this), amount);\r\n        _token.transferFrom(msg.sender,address(this), lockedAmount);\r\n\r\n        // si l'enchre est valide, on la cre et on la rajoute dans l'array\r\n        Bid memory newBid = Bid(msg.sender,amount);\r\n        _bids[nftId].push(newBid);\r\n        return true;\r\n    }\r\n\r\n    function viewBids(uint256 nftId) public view returns(Bid[] memory){\r\n        return _bids[nftId];\r\n    }\r\n\r\n    function claimBid(uint256 nftId) public returns(bool) {\r\n        Bid[] memory currentBids = _bids[nftId];\r\n\r\n        // On rcupre la dernire entre, qui est forcment l'enchre la plus haute\r\n        Bid memory winnerBid = currentBids[currentBids.length-1];\r\n\r\n        // On rcupre l'adresse de celui qui possde le NFT\r\n        address nftOwner = _NFT.ownerOf(nftId);\r\n        require((msg.sender == nftOwner),\"You must be the owner of the bid to claim it\");\r\n        // On burn le NFT et on transfre l'argent  celui qui a mis l'enchre\r\n        _NFT.transferFrom(nftOwner, burnAddr, nftId);\r\n        _token.transferFrom(owner, nftOwner, winnerBid.price);\r\n\r\n        // On supprime le vainqueur des enchres pour pouvoir garder uniquement les perdants\r\n        delete currentBids[currentBids.length-1];\r\n\r\n        // On rend les tokens pris aux gens qui ont enchri mais n'ont pas gagn\r\n        for(uint256 i = 0; i < currentBids.length; i++){\r\n            _token.transferFrom(owner, currentBids[i].bidder, currentBids[i].price);\r\n        }\r\n        return true;\r\n        \r\n    }\r\n\r\n    function currentBalance() public view returns(uint256){\r\n        return _token.balanceOf(msg.sender);\r\n    }\r\n\r\n    function getAllowance() public view returns(uint256){\r\n        return _token.allowance(address(this), msg.sender);\r\n    }\r\n}\r\n",
  "sourcePath": "D:/BUREAU/Travail/ESGI/3ESGI IBC/Projet Annuel/PA_2K21/contracts/Bidding.sol",
  "compiler": {
    "name": "solc",
    "version": "0.8.4+commit.c7e474f2.Emscripten.clang"
  },
  "schemaVersion": "3.4.1",
  "updatedAt": "2021-07-27T19:40:08.079Z",
  "networkType": "ethereum",
  "devdoc": {
    "kind": "dev",
    "methods": {},
    "version": 1
  },
  "userdoc": {
    "kind": "user",
    "methods": {},
    "version": 1
  }
}