{
  "contractName": "Bidding",
  "abi": [
    {
      "inputs": [
        {
          "internalType": "contract IBidC",
          "name": "token",
          "type": "address"
        },
        {
          "internalType": "contract IBidCNFT",
          "name": "NFT",
          "type": "address"
        }
      ],
      "stateMutability": "nonpayable",
      "type": "constructor"
    },
    {
      "inputs": [
        {
          "internalType": "uint256",
          "name": "",
          "type": "uint256"
        },
        {
          "internalType": "uint256",
          "name": "",
          "type": "uint256"
        }
      ],
      "name": "_bids",
      "outputs": [
        {
          "internalType": "address",
          "name": "bidder",
          "type": "address"
        },
        {
          "internalType": "uint256",
          "name": "price",
          "type": "uint256"
        }
      ],
      "stateMutability": "view",
      "type": "function",
      "constant": true
    },
    {
      "inputs": [],
      "name": "burnAddr",
      "outputs": [
        {
          "internalType": "address",
          "name": "",
          "type": "address"
        }
      ],
      "stateMutability": "view",
      "type": "function",
      "constant": true
    },
    {
      "inputs": [],
      "name": "owner",
      "outputs": [
        {
          "internalType": "address",
          "name": "",
          "type": "address"
        }
      ],
      "stateMutability": "view",
      "type": "function",
      "constant": true
    },
    {
      "inputs": [
        {
          "internalType": "string",
          "name": "bidJSON",
          "type": "string"
        },
        {
          "internalType": "uint256",
          "name": "defaultPrice",
          "type": "uint256"
        }
      ],
      "name": "createBid",
      "outputs": [
        {
          "internalType": "uint256",
          "name": "",
          "type": "uint256"
        }
      ],
      "stateMutability": "nonpayable",
      "type": "function"
    },
    {
      "inputs": [
        {
          "internalType": "uint256",
          "name": "nftId",
          "type": "uint256"
        },
        {
          "internalType": "uint256",
          "name": "amount",
          "type": "uint256"
        }
      ],
      "name": "addBid",
      "outputs": [
        {
          "internalType": "bool",
          "name": "",
          "type": "bool"
        }
      ],
      "stateMutability": "nonpayable",
      "type": "function"
    },
    {
      "inputs": [
        {
          "internalType": "uint256",
          "name": "nftId",
          "type": "uint256"
        }
      ],
      "name": "viewBids",
      "outputs": [
        {
          "components": [
            {
              "internalType": "address",
              "name": "bidder",
              "type": "address"
            },
            {
              "internalType": "uint256",
              "name": "price",
              "type": "uint256"
            }
          ],
          "internalType": "struct Bidding.Bid[]",
          "name": "",
          "type": "tuple[]"
        }
      ],
      "stateMutability": "view",
      "type": "function",
      "constant": true
    },
    {
      "inputs": [
        {
          "internalType": "uint256",
          "name": "nftId",
          "type": "uint256"
        }
      ],
      "name": "claimBid",
      "outputs": [
        {
          "internalType": "bool",
          "name": "",
          "type": "bool"
        }
      ],
      "stateMutability": "nonpayable",
      "type": "function"
    },
    {
      "inputs": [],
      "name": "currentBalance",
      "outputs": [
        {
          "internalType": "uint256",
          "name": "",
          "type": "uint256"
        }
      ],
      "stateMutability": "view",
      "type": "function",
      "constant": true
    },
    {
      "inputs": [],
      "name": "getAllowance",
      "outputs": [
        {
          "internalType": "uint256",
          "name": "",
          "type": "uint256"
        }
      ],
      "stateMutability": "view",
      "type": "function",
      "constant": true
    },
    {
      "inputs": [],
      "name": "getMe",
      "outputs": [
        {
          "internalType": "address",
          "name": "",
          "type": "address"
        }
      ],
      "stateMutability": "view",
      "type": "function",
      "constant": true
    }
  ],
  "bytecode": "0x6080604052336000806101000a81548173ffffffffffffffffffffffffffffffffffffffff021916908373ffffffffffffffffffffffffffffffffffffffff1602179055506000600160006101000a81548173ffffffffffffffffffffffffffffffffffffffff021916908373ffffffffffffffffffffffffffffffffffffffff1602179055503480156200009357600080fd5b5060405162001fd738038062001fd78339818101604052810190620000b9919062000171565b81600260006101000a81548173ffffffffffffffffffffffffffffffffffffffff021916908373ffffffffffffffffffffffffffffffffffffffff16021790555080600360006101000a81548173ffffffffffffffffffffffffffffffffffffffff021916908373ffffffffffffffffffffffffffffffffffffffff160217905550505062000242565b60008151905062000154816200020e565b92915050565b6000815190506200016b8162000228565b92915050565b600080604083850312156200018557600080fd5b600062000195858286016200015a565b9250506020620001a88582860162000143565b9150509250929050565b6000620001bf82620001ee565b9050919050565b6000620001d382620001b2565b9050919050565b6000620001e782620001b2565b9050919050565b600073ffffffffffffffffffffffffffffffffffffffff82169050919050565b6200021981620001c6565b81146200022557600080fd5b50565b6200023381620001da565b81146200023f57600080fd5b50565b611d8580620002526000396000f3fe608060405234801561001057600080fd5b506004361061009e5760003560e01c80638da5cb5b116100665780638da5cb5b14610194578063973e9b8b146101b2578063c11e1ff3146101d0578063ce845d1d146101ee578063d246d4111461020c5761009e565b806308492940146100a357806321113057146100d357806321b23f041461010357806373280b49146101335780638be4952714610164575b600080fd5b6100bd60048036038101906100b891906115d9565b61022a565b6040516100ca91906118f0565b60405180910390f35b6100ed60048036038101906100e891906115d9565b6102fc565b6040516100fa9190611912565b60405180910390f35b61011d6004803603810190610118919061162b565b6108a0565b60405161012a9190611912565b60405180910390f35b61014d6004803603810190610148919061162b565b6110b0565b60405161015b9291906118c7565b60405180910390f35b61017e60048036038101906101799190611585565b611111565b60405161018b91906119ad565b60405180910390f35b61019c61128f565b6040516101a9919061181c565b60405180910390f35b6101ba6112b3565b6040516101c791906119ad565b60405180910390f35b6101d8611367565b6040516101e5919061181c565b60405180910390f35b6101f661136f565b60405161020391906119ad565b60405180910390f35b610214611421565b604051610221919061181c565b60405180910390f35b606060046000838152602001908152602001600020805480602002602001604051908101604052809291908181526020016000905b828210156102f157838290600052602060002090600202016040518060400160405290816000820160009054906101000a900473ffffffffffffffffffffffffffffffffffffffff1673ffffffffffffffffffffffffffffffffffffffff1673ffffffffffffffffffffffffffffffffffffffff1681526020016001820154815250508152602001906001019061025f565b505050509050919050565b60008060046000848152602001908152602001600020805480602002602001604051908101604052809291908181526020016000905b828210156103c457838290600052602060002090600202016040518060400160405290816000820160009054906101000a900473ffffffffffffffffffffffffffffffffffffffff1673ffffffffffffffffffffffffffffffffffffffff1673ffffffffffffffffffffffffffffffffffffffff16815260200160018201548152505081526020019060010190610332565b505050509050600081600183516103db9190611a73565b81518110610412577f4e487b7100000000000000000000000000000000000000000000000000000000600052603260045260246000fd5b602002602001015190506000600360009054906101000a900473ffffffffffffffffffffffffffffffffffffffff1673ffffffffffffffffffffffffffffffffffffffff16636352211e866040518263ffffffff1660e01b815260040161047991906119ad565b60206040518083038186803b15801561049157600080fd5b505afa1580156104a5573d6000803e3d6000fd5b505050506040513d601f19601f820116820180604052508101906104c99190611533565b90508073ffffffffffffffffffffffffffffffffffffffff163373ffffffffffffffffffffffffffffffffffffffff1614610539576040517f08c379a00000000000000000000000000000000000000000000000000000000081526004016105309061192d565b60405180910390fd5b600360009054906101000a900473ffffffffffffffffffffffffffffffffffffffff1673ffffffffffffffffffffffffffffffffffffffff166323b872dd82600160009054906101000a900473ffffffffffffffffffffffffffffffffffffffff16886040518463ffffffff1660e01b81526004016105ba93929190611860565b600060405180830381600087803b1580156105d457600080fd5b505af11580156105e8573d6000803e3d6000fd5b50505050600260009054906101000a900473ffffffffffffffffffffffffffffffffffffffff1673ffffffffffffffffffffffffffffffffffffffff166323b872dd60008054906101000a900473ffffffffffffffffffffffffffffffffffffffff168385602001516040518463ffffffff1660e01b815260040161066f93929190611860565b602060405180830381600087803b15801561068957600080fd5b505af115801561069d573d6000803e3d6000fd5b505050506040513d601f19601f820116820180604052508101906106c1919061155c565b5082600184516106d19190611a73565b81518110610708577f4e487b7100000000000000000000000000000000000000000000000000000000600052603260045260246000fd5b60200260200101610717611447565b81525060005b835181101561089357600260009054906101000a900473ffffffffffffffffffffffffffffffffffffffff1673ffffffffffffffffffffffffffffffffffffffff166323b872dd60008054906101000a900473ffffffffffffffffffffffffffffffffffffffff168684815181106107be577f4e487b7100000000000000000000000000000000000000000000000000000000600052603260045260246000fd5b602002602001015160000151878581518110610803577f4e487b7100000000000000000000000000000000000000000000000000000000600052603260045260246000fd5b6020026020010151602001516040518463ffffffff1660e01b815260040161082d93929190611860565b602060405180830381600087803b15801561084757600080fd5b505af115801561085b573d6000803e3d6000fd5b505050506040513d601f19601f8201168201806040525081019061087f919061155c565b50808061088b90611b62565b91505061071d565b5060019350505050919050565b6000600360009054906101000a900473ffffffffffffffffffffffffffffffffffffffff1673ffffffffffffffffffffffffffffffffffffffff16634f558e79846040518263ffffffff1660e01b81526004016108fd91906119ad565b60206040518083038186803b15801561091557600080fd5b505afa158015610929573d6000803e3d6000fd5b505050506040513d601f19601f8201168201806040525081019061094d919061155c565b61098c576040517f08c379a00000000000000000000000000000000000000000000000000000000081526004016109839061198d565b60405180910390fd5b6000600360009054906101000a900473ffffffffffffffffffffffffffffffffffffffff1673ffffffffffffffffffffffffffffffffffffffff16636352211e856040518263ffffffff1660e01b81526004016109e991906119ad565b60206040518083038186803b158015610a0157600080fd5b505afa158015610a15573d6000803e3d6000fd5b505050506040513d601f19601f82011682018060405250810190610a399190611533565b90503373ffffffffffffffffffffffffffffffffffffffff168173ffffffffffffffffffffffffffffffffffffffff161415610aaa576040517f08c379a0000000000000000000000000000000000000000000000000000000008152600401610aa19061194d565b60405180910390fd5b600060046000868152602001908152602001600020805480602002602001604051908101604052809291908181526020016000905b82821015610b7157838290600052602060002090600202016040518060400160405290816000820160009054906101000a900473ffffffffffffffffffffffffffffffffffffffff1673ffffffffffffffffffffffffffffffffffffffff1673ffffffffffffffffffffffffffffffffffffffff16815260200160018201548152505081526020019060010190610adf565b50505050905060005b8151811015610bed5784828281518110610bbd577f4e487b7100000000000000000000000000000000000000000000000000000000600052603260045260246000fd5b60200260200101516020015110610bda57600093505050506110aa565b8080610be590611b62565b915050610b7a565b5060006040518060400160405280600160009054906101000a900473ffffffffffffffffffffffffffffffffffffffff1673ffffffffffffffffffffffffffffffffffffffff1681526020016000815250905060005b8251811015610d1b573373ffffffffffffffffffffffffffffffffffffffff16838281518110610c9c577f4e487b7100000000000000000000000000000000000000000000000000000000600052603260045260246000fd5b60200260200101516000015173ffffffffffffffffffffffffffffffffffffffff161415610d0857828181518110610cfd577f4e487b7100000000000000000000000000000000000000000000000000000000600052603260045260246000fd5b602002602001015191505b8080610d1390611b62565b915050610c43565b506000600160009054906101000a900473ffffffffffffffffffffffffffffffffffffffff1673ffffffffffffffffffffffffffffffffffffffff16826000015173ffffffffffffffffffffffffffffffffffffffff1614610d8e57816020015186610d879190611a73565b9050610d92565b8590505b80600260009054906101000a900473ffffffffffffffffffffffffffffffffffffffff1673ffffffffffffffffffffffffffffffffffffffff166370a08231336040518263ffffffff1660e01b8152600401610dee919061181c565b60206040518083038186803b158015610e0657600080fd5b505afa158015610e1a573d6000803e3d6000fd5b505050506040513d601f19601f82011682018060405250810190610e3e9190611602565b1015610e7f576040517f08c379a0000000000000000000000000000000000000000000000000000000008152600401610e769061196d565b60405180910390fd5b600260009054906101000a900473ffffffffffffffffffffffffffffffffffffffff1673ffffffffffffffffffffffffffffffffffffffff1663095ea7b330886040518363ffffffff1660e01b8152600401610edc9291906118c7565b602060405180830381600087803b158015610ef657600080fd5b505af1158015610f0a573d6000803e3d6000fd5b505050506040513d601f19601f82011682018060405250810190610f2e919061155c565b50600260009054906101000a900473ffffffffffffffffffffffffffffffffffffffff1673ffffffffffffffffffffffffffffffffffffffff166323b872dd3330846040518463ffffffff1660e01b8152600401610f8e93929190611860565b602060405180830381600087803b158015610fa857600080fd5b505af1158015610fbc573d6000803e3d6000fd5b505050506040513d601f19601f82011682018060405250810190610fe0919061155c565b50600060405180604001604052803373ffffffffffffffffffffffffffffffffffffffff1681526020018881525090506004600089815260200190815260200160002081908060018154018082558091505060019003906000526020600020906002020160009091909190915060008201518160000160006101000a81548173ffffffffffffffffffffffffffffffffffffffff021916908373ffffffffffffffffffffffffffffffffffffffff1602179055506020820151816001015550506001955050505050505b92915050565b600460205281600052604060002081815481106110cc57600080fd5b9060005260206000209060020201600091509150508060000160009054906101000a900473ffffffffffffffffffffffffffffffffffffffff16908060010154905082565b600080600360009054906101000a900473ffffffffffffffffffffffffffffffffffffffff1673ffffffffffffffffffffffffffffffffffffffff1663a02d728233866040518363ffffffff1660e01b8152600401611171929190611897565b602060405180830381600087803b15801561118b57600080fd5b505af115801561119f573d6000803e3d6000fd5b505050506040513d601f19601f820116820180604052508101906111c39190611602565b9050600060405180604001604052803373ffffffffffffffffffffffffffffffffffffffff1681526020018581525090506004600083815260200190815260200160002081908060018154018082558091505060019003906000526020600020906002020160009091909190915060008201518160000160006101000a81548173ffffffffffffffffffffffffffffffffffffffff021916908373ffffffffffffffffffffffffffffffffffffffff160217905550602082015181600101555050819250505092915050565b60008054906101000a900473ffffffffffffffffffffffffffffffffffffffff1681565b6000600260009054906101000a900473ffffffffffffffffffffffffffffffffffffffff1673ffffffffffffffffffffffffffffffffffffffff1663dd62ed3e30336040518363ffffffff1660e01b8152600401611312929190611837565b60206040518083038186803b15801561132a57600080fd5b505afa15801561133e573d6000803e3d6000fd5b505050506040513d601f19601f820116820180604052508101906113629190611602565b905090565b600033905090565b6000600260009054906101000a900473ffffffffffffffffffffffffffffffffffffffff1673ffffffffffffffffffffffffffffffffffffffff166370a08231336040518263ffffffff1660e01b81526004016113cc919061181c565b60206040518083038186803b1580156113e457600080fd5b505afa1580156113f8573d6000803e3d6000fd5b505050506040513d601f19601f8201168201806040525081019061141c9190611602565b905090565b600160009054906101000a900473ffffffffffffffffffffffffffffffffffffffff1681565b6040518060400160405280600073ffffffffffffffffffffffffffffffffffffffff168152602001600081525090565b600061148a611485846119ed565b6119c8565b9050828152602081018484840111156114a257600080fd5b6114ad848285611aef565b509392505050565b6000815190506114c481611d0a565b92915050565b6000815190506114d981611d21565b92915050565b600082601f8301126114f057600080fd5b8135611500848260208601611477565b91505092915050565b60008135905061151881611d38565b92915050565b60008151905061152d81611d38565b92915050565b60006020828403121561154557600080fd5b6000611553848285016114b5565b91505092915050565b60006020828403121561156e57600080fd5b600061157c848285016114ca565b91505092915050565b6000806040838503121561159857600080fd5b600083013567ffffffffffffffff8111156115b257600080fd5b6115be858286016114df565b92505060206115cf85828601611509565b9150509250929050565b6000602082840312156115eb57600080fd5b60006115f984828501611509565b91505092915050565b60006020828403121561161457600080fd5b60006116228482850161151e565b91505092915050565b6000806040838503121561163e57600080fd5b600061164c85828601611509565b925050602061165d85828601611509565b9150509250929050565b600061167383836117cf565b60408301905092915050565b61168881611aa7565b82525050565b61169781611aa7565b82525050565b60006116a882611a2e565b6116b28185611a51565b93506116bd83611a1e565b8060005b838110156116ee5781516116d58882611667565b97506116e083611a44565b9250506001810190506116c1565b5085935050505092915050565b61170481611ab9565b82525050565b600061171582611a39565b61171f8185611a62565b935061172f818560208601611afe565b61173881611c09565b840191505092915050565b6000611750602c83611a62565b915061175b82611c1a565b604082019050919050565b6000611773601d83611a62565b915061177e82611c69565b602082019050919050565b6000611796602c83611a62565b91506117a182611c92565b604082019050919050565b60006117b9601683611a62565b91506117c482611ce1565b602082019050919050565b6040820160008201516117e5600085018261167f565b5060208201516117f860208501826117fe565b50505050565b61180781611ae5565b82525050565b61181681611ae5565b82525050565b6000602082019050611831600083018461168e565b92915050565b600060408201905061184c600083018561168e565b611859602083018461168e565b9392505050565b6000606082019050611875600083018661168e565b611882602083018561168e565b61188f604083018461180d565b949350505050565b60006040820190506118ac600083018561168e565b81810360208301526118be818461170a565b90509392505050565b60006040820190506118dc600083018561168e565b6118e9602083018461180d565b9392505050565b6000602082019050818103600083015261190a818461169d565b905092915050565b600060208201905061192760008301846116fb565b92915050565b6000602082019050818103600083015261194681611743565b9050919050565b6000602082019050818103600083015261196681611766565b9050919050565b6000602082019050818103600083015261198681611789565b9050919050565b600060208201905081810360008301526119a6816117ac565b9050919050565b60006020820190506119c2600083018461180d565b92915050565b60006119d26119e3565b90506119de8282611b31565b919050565b6000604051905090565b600067ffffffffffffffff821115611a0857611a07611bda565b5b611a1182611c09565b9050602081019050919050565b6000819050602082019050919050565b600081519050919050565b600081519050919050565b6000602082019050919050565b600082825260208201905092915050565b600082825260208201905092915050565b6000611a7e82611ae5565b9150611a8983611ae5565b925082821015611a9c57611a9b611bab565b5b828203905092915050565b6000611ab282611ac5565b9050919050565b60008115159050919050565b600073ffffffffffffffffffffffffffffffffffffffff82169050919050565b6000819050919050565b82818337600083830152505050565b60005b83811015611b1c578082015181840152602081019050611b01565b83811115611b2b576000848401525b50505050565b611b3a82611c09565b810181811067ffffffffffffffff82111715611b5957611b58611bda565b5b80604052505050565b6000611b6d82611ae5565b91507fffffffffffffffffffffffffffffffffffffffffffffffffffffffffffffffff821415611ba057611b9f611bab565b5b600182019050919050565b7f4e487b7100000000000000000000000000000000000000000000000000000000600052601160045260246000fd5b7f4e487b7100000000000000000000000000000000000000000000000000000000600052604160045260246000fd5b6000601f19601f8301169050919050565b7f596f75206d75737420626520746865206f776e6572206f66207468652062696460008201527f20746f20636c61696d2069740000000000000000000000000000000000000000602082015250565b7f596f752063616e277420626964206f6e20796f7572206f776e204e4654000000600082015250565b7f596f7520646f6e277420686176652074686520616d6f756e7420796f7527726560008201527f2062696464696e6720666f720000000000000000000000000000000000000000602082015250565b7f546865204e465420646f65736e27742065786973747300000000000000000000600082015250565b611d1381611aa7565b8114611d1e57600080fd5b50565b611d2a81611ab9565b8114611d3557600080fd5b50565b611d4181611ae5565b8114611d4c57600080fd5b5056fea264697066735822122050f7ed945259af53e268919fde1f59462d948b0a1d6663e42984928080e51dbd64736f6c63430008040033",
  "immutableReferences": {},
  "source": "// SPDX-License-Identifier: GNU3\r\npragma solidity >=0.4.22 <=0.8.6;\r\nimport \"./IBidC.sol\";\r\nimport \"./IBidCNFT.sol\";\r\n\r\ncontract Bidding {\r\n    address public owner = msg.sender;\r\n    address public burnAddr = 0x0000000000000000000000000000000000000000;\r\n\r\n    IBidC private _token;\r\n    IBidCNFT private _NFT;\r\n\r\n    struct Bid {\r\n        address bidder;\r\n        uint256 price;\r\n    }\r\n\r\n    mapping(uint256 => Bid[]) public _bids;\r\n\r\n    constructor(IBidC token, IBidCNFT NFT) {\r\n        _token = token;\r\n        _NFT = NFT;\r\n    }\r\n\r\n    modifier restricted() {\r\n        require(\r\n            msg.sender == owner,\r\n            \"This function is restricted to the contract's owner\"\r\n        );\r\n        _;\r\n    }\r\n\r\n    function createBid(string memory bidJSON, uint256 defaultPrice) public returns (uint256){\r\n        uint256 nftId = _NFT.createBid(msg.sender, bidJSON);\r\n        Bid memory newBid = Bid(msg.sender,defaultPrice);\r\n        _bids[nftId].push(newBid);\r\n        return nftId;\r\n    }\r\n\r\n    function addBid(uint256 nftId,uint256 amount) public returns (bool){\r\n        // On vrifie que le NFT existe bien\r\n        require(_NFT.exists(nftId),\"The NFT doesn't exists\");\r\n        \r\n        address nftOwner = _NFT.ownerOf(nftId);\r\n        require(nftOwner != msg.sender,\"You can't bid on your own NFT\");\r\n\r\n        /* \r\n        * On vrifie toutes les enchres en cours\r\n        * si une est dj existante a + cher ou au mme prix\r\n        * on renvoie false\r\n        */ \r\n        Bid[] memory currentBids = _bids[nftId];\r\n        for(uint256 i = 0; i < currentBids.length; i++){\r\n            if(currentBids[i].price >= amount){\r\n                return false;\r\n            }\r\n        }\r\n\r\n        // On vrifie si la personne a dj enchri\r\n        Bid memory alreadyBid = Bid(burnAddr,0);\r\n        for(uint256 i = 0; i < currentBids.length; i++){\r\n            if(currentBids[i].bidder == msg.sender){\r\n                alreadyBid = currentBids[i];\r\n            }\r\n        }\r\n\r\n        /**\r\n        * si la personne a dj enchri, on bloque la diffrence entre la dernire enchre\r\n        * et la nouvelle, sinon on bloque la somme entire\r\n        */\r\n        uint256 lockedAmount = 0;\r\n        if (alreadyBid.bidder != burnAddr){\r\n            lockedAmount = (amount - alreadyBid.price);\r\n        }else{\r\n            lockedAmount = amount;\r\n        }\r\n\r\n        // Si la personne qui enchrit n'a pas l'argent ncssaire\r\n        require(_token.balanceOf(msg.sender) >= lockedAmount,\"You don't have the amount you're bidding for\");\r\n\r\n        // On bloque sur le compte du owner la somme de l'enchre\r\n        _token.approve(address(this), amount);\r\n        _token.transferFrom(msg.sender,address(this), lockedAmount);\r\n\r\n        // si l'enchre est valide, on la cre et on la rajoute dans l'array\r\n        Bid memory newBid = Bid(msg.sender,amount);\r\n        _bids[nftId].push(newBid);\r\n        return true;\r\n    }\r\n\r\n    function viewBids(uint256 nftId) public view returns(Bid[] memory){\r\n        return _bids[nftId];\r\n    }\r\n\r\n    function claimBid(uint256 nftId) public returns(bool) {\r\n        Bid[] memory currentBids = _bids[nftId];\r\n\r\n        // On rcupre la dernire entre, qui est forcment l'enchre la plus haute\r\n        Bid memory winnerBid = currentBids[currentBids.length-1];\r\n\r\n        // On rcupre l'adresse de celui qui possde le NFT\r\n        address nftOwner = _NFT.ownerOf(nftId);\r\n        require((msg.sender == nftOwner),\"You must be the owner of the bid to claim it\");\r\n        // On burn le NFT et on transfre l'argent  celui qui a mis l'enchre\r\n        _NFT.transferFrom(nftOwner, burnAddr, nftId);\r\n        _token.transferFrom(owner, nftOwner, winnerBid.price);\r\n\r\n        // On supprime le vainqueur des enchres pour pouvoir garder uniquement les perdants\r\n        delete currentBids[currentBids.length-1];\r\n\r\n        // On rend les tokens pris aux gens qui ont enchri mais n'ont pas gagn\r\n        for(uint256 i = 0; i < currentBids.length; i++){\r\n            _token.transferFrom(owner, currentBids[i].bidder, currentBids[i].price);\r\n        }\r\n        return true;\r\n        \r\n    }\r\n\r\n    function currentBalance() public view returns(uint256){\r\n        return _token.balanceOf(msg.sender);\r\n    }\r\n\r\n    function getAllowance() public view returns(uint256){\r\n        return _token.allowance(address(this), msg.sender);\r\n    }\r\n\r\n    function getMe() public view returns(address){\r\n        return msg.sender;\r\n    }\r\n}\r\n",
  "sourcePath": "D:/BUREAU/Travail/ESGI/3ESGI IBC/Projet Annuel/PA_2K21/contracts/Bidding.sol",
  "compiler": {
    "name": "solc",
    "version": "0.8.4+commit.c7e474f2.Emscripten.clang"
  },
  "schemaVersion": "3.4.1",
  "updatedAt": "2021-07-29T19:23:43.922Z",
  "networkType": "ethereum",
  "devdoc": {
    "kind": "dev",
    "methods": {},
    "version": 1
  },
  "userdoc": {
    "kind": "user",
    "methods": {},
    "version": 1
  }
}