{
  "contractName": "Bidding",
  "abi": [
    {
      "inputs": [
        {
          "internalType": "contract IBidC",
          "name": "token",
          "type": "address"
        },
        {
          "internalType": "contract IBidCNFT",
          "name": "NFT",
          "type": "address"
        }
      ],
      "stateMutability": "nonpayable",
      "type": "constructor"
    },
    {
      "inputs": [
        {
          "internalType": "uint256",
          "name": "",
          "type": "uint256"
        },
        {
          "internalType": "uint256",
          "name": "",
          "type": "uint256"
        }
      ],
      "name": "_bids",
      "outputs": [
        {
          "internalType": "address",
          "name": "bidder",
          "type": "address"
        },
        {
          "internalType": "uint256",
          "name": "price",
          "type": "uint256"
        }
      ],
      "stateMutability": "view",
      "type": "function",
      "constant": true
    },
    {
      "inputs": [],
      "name": "burnAddr",
      "outputs": [
        {
          "internalType": "address",
          "name": "",
          "type": "address"
        }
      ],
      "stateMutability": "view",
      "type": "function",
      "constant": true
    },
    {
      "inputs": [],
      "name": "owner",
      "outputs": [
        {
          "internalType": "address",
          "name": "",
          "type": "address"
        }
      ],
      "stateMutability": "view",
      "type": "function",
      "constant": true
    },
    {
      "inputs": [
        {
          "internalType": "string",
          "name": "bidJSON",
          "type": "string"
        },
        {
          "internalType": "uint256",
          "name": "defaultPrice",
          "type": "uint256"
        }
      ],
      "name": "createBid",
      "outputs": [
        {
          "internalType": "uint256",
          "name": "",
          "type": "uint256"
        }
      ],
      "stateMutability": "nonpayable",
      "type": "function"
    },
    {
      "inputs": [
        {
          "internalType": "uint256",
          "name": "nftId",
          "type": "uint256"
        },
        {
          "internalType": "uint256",
          "name": "amount",
          "type": "uint256"
        }
      ],
      "name": "addBid",
      "outputs": [
        {
          "internalType": "bool",
          "name": "",
          "type": "bool"
        }
      ],
      "stateMutability": "nonpayable",
      "type": "function"
    },
    {
      "inputs": [
        {
          "internalType": "uint256",
          "name": "nftId",
          "type": "uint256"
        }
      ],
      "name": "viewBids",
      "outputs": [
        {
          "components": [
            {
              "internalType": "address",
              "name": "bidder",
              "type": "address"
            },
            {
              "internalType": "uint256",
              "name": "price",
              "type": "uint256"
            }
          ],
          "internalType": "struct Bidding.Bid[]",
          "name": "",
          "type": "tuple[]"
        }
      ],
      "stateMutability": "view",
      "type": "function",
      "constant": true
    },
    {
      "inputs": [
        {
          "internalType": "uint256",
          "name": "nftId",
          "type": "uint256"
        }
      ],
      "name": "claimBid",
      "outputs": [
        {
          "internalType": "bool",
          "name": "",
          "type": "bool"
        }
      ],
      "stateMutability": "nonpayable",
      "type": "function"
    },
    {
      "inputs": [],
      "name": "currentBalance",
      "outputs": [
        {
          "internalType": "uint256",
          "name": "",
          "type": "uint256"
        }
      ],
      "stateMutability": "view",
      "type": "function",
      "constant": true
    },
    {
      "inputs": [],
      "name": "getAllowance",
      "outputs": [
        {
          "internalType": "uint256",
          "name": "",
          "type": "uint256"
        }
      ],
      "stateMutability": "view",
      "type": "function",
      "constant": true
    }
  ],
  "bytecode": "0x6080604052336000806101000a81548173ffffffffffffffffffffffffffffffffffffffff021916908373ffffffffffffffffffffffffffffffffffffffff1602179055506000600160006101000a81548173ffffffffffffffffffffffffffffffffffffffff021916908373ffffffffffffffffffffffffffffffffffffffff1602179055503480156200009357600080fd5b5060405162001e1a38038062001e1a8339818101604052810190620000b9919062000171565b81600260006101000a81548173ffffffffffffffffffffffffffffffffffffffff021916908373ffffffffffffffffffffffffffffffffffffffff16021790555080600360006101000a81548173ffffffffffffffffffffffffffffffffffffffff021916908373ffffffffffffffffffffffffffffffffffffffff160217905550505062000242565b60008151905062000154816200020e565b92915050565b6000815190506200016b8162000228565b92915050565b600080604083850312156200018557600080fd5b600062000195858286016200015a565b9250506020620001a88582860162000143565b9150509250929050565b6000620001bf82620001ee565b9050919050565b6000620001d382620001b2565b9050919050565b6000620001e782620001b2565b9050919050565b600073ffffffffffffffffffffffffffffffffffffffff82169050919050565b6200021981620001c6565b81146200022557600080fd5b50565b6200023381620001da565b81146200023f57600080fd5b50565b611bc880620002526000396000f3fe608060405234801561001057600080fd5b50600436106100935760003560e01c80638be49527116100665780638be49527146101595780638da5cb5b14610189578063973e9b8b146101a7578063ce845d1d146101c5578063d246d411146101e357610093565b8063084929401461009857806321113057146100c857806321b23f04146100f857806373280b4914610128575b600080fd5b6100b260048036038101906100ad9190611488565b610201565b6040516100bf919061177c565b60405180910390f35b6100e260048036038101906100dd9190611488565b6102d3565b6040516100ef919061179e565b60405180910390f35b610112600480360381019061010d91906114da565b610877565b60405161011f919061179e565b60405180910390f35b610142600480360381019061013d91906114da565b610f67565b604051610150929190611753565b60405180910390f35b610173600480360381019061016e9190611434565b610fc8565b6040516101809190611819565b60405180910390f35b610191611146565b60405161019e91906116a8565b60405180910390f35b6101af61116a565b6040516101bc9190611819565b60405180910390f35b6101cd61121e565b6040516101da9190611819565b60405180910390f35b6101eb6112d0565b6040516101f891906116a8565b60405180910390f35b606060046000838152602001908152602001600020805480602002602001604051908101604052809291908181526020016000905b828210156102c857838290600052602060002090600202016040518060400160405290816000820160009054906101000a900473ffffffffffffffffffffffffffffffffffffffff1673ffffffffffffffffffffffffffffffffffffffff1673ffffffffffffffffffffffffffffffffffffffff16815260200160018201548152505081526020019060010190610236565b505050509050919050565b60008060046000848152602001908152602001600020805480602002602001604051908101604052809291908181526020016000905b8282101561039b57838290600052602060002090600202016040518060400160405290816000820160009054906101000a900473ffffffffffffffffffffffffffffffffffffffff1673ffffffffffffffffffffffffffffffffffffffff1673ffffffffffffffffffffffffffffffffffffffff16815260200160018201548152505081526020019060010190610309565b505050509050600081600183516103b291906118df565b815181106103e9577f4e487b7100000000000000000000000000000000000000000000000000000000600052603260045260246000fd5b602002602001015190506000600360009054906101000a900473ffffffffffffffffffffffffffffffffffffffff1673ffffffffffffffffffffffffffffffffffffffff16636352211e866040518263ffffffff1660e01b81526004016104509190611819565b60206040518083038186803b15801561046857600080fd5b505afa15801561047c573d6000803e3d6000fd5b505050506040513d601f19601f820116820180604052508101906104a091906113e2565b90508073ffffffffffffffffffffffffffffffffffffffff163373ffffffffffffffffffffffffffffffffffffffff1614610510576040517f08c379a0000000000000000000000000000000000000000000000000000000008152600401610507906117b9565b60405180910390fd5b600360009054906101000a900473ffffffffffffffffffffffffffffffffffffffff1673ffffffffffffffffffffffffffffffffffffffff166323b872dd82600160009054906101000a900473ffffffffffffffffffffffffffffffffffffffff16886040518463ffffffff1660e01b8152600401610591939291906116ec565b600060405180830381600087803b1580156105ab57600080fd5b505af11580156105bf573d6000803e3d6000fd5b50505050600260009054906101000a900473ffffffffffffffffffffffffffffffffffffffff1673ffffffffffffffffffffffffffffffffffffffff166323b872dd60008054906101000a900473ffffffffffffffffffffffffffffffffffffffff168385602001516040518463ffffffff1660e01b8152600401610646939291906116ec565b602060405180830381600087803b15801561066057600080fd5b505af1158015610674573d6000803e3d6000fd5b505050506040513d601f19601f82011682018060405250810190610698919061140b565b5082600184516106a891906118df565b815181106106df577f4e487b7100000000000000000000000000000000000000000000000000000000600052603260045260246000fd5b602002602001016106ee6112f6565b81525060005b835181101561086a57600260009054906101000a900473ffffffffffffffffffffffffffffffffffffffff1673ffffffffffffffffffffffffffffffffffffffff166323b872dd60008054906101000a900473ffffffffffffffffffffffffffffffffffffffff16868481518110610795577f4e487b7100000000000000000000000000000000000000000000000000000000600052603260045260246000fd5b6020026020010151600001518785815181106107da577f4e487b7100000000000000000000000000000000000000000000000000000000600052603260045260246000fd5b6020026020010151602001516040518463ffffffff1660e01b8152600401610804939291906116ec565b602060405180830381600087803b15801561081e57600080fd5b505af1158015610832573d6000803e3d6000fd5b505050506040513d601f19601f82011682018060405250810190610856919061140b565b508080610862906119ce565b9150506106f4565b5060019350505050919050565b6000600360009054906101000a900473ffffffffffffffffffffffffffffffffffffffff1673ffffffffffffffffffffffffffffffffffffffff16634f558e79846040518263ffffffff1660e01b81526004016108d49190611819565b60206040518083038186803b1580156108ec57600080fd5b505afa158015610900573d6000803e3d6000fd5b505050506040513d601f19601f82011682018060405250810190610924919061140b565b610963576040517f08c379a000000000000000000000000000000000000000000000000000000000815260040161095a906117f9565b60405180910390fd5b600060046000858152602001908152602001600020805480602002602001604051908101604052809291908181526020016000905b82821015610a2a57838290600052602060002090600202016040518060400160405290816000820160009054906101000a900473ffffffffffffffffffffffffffffffffffffffff1673ffffffffffffffffffffffffffffffffffffffff1673ffffffffffffffffffffffffffffffffffffffff16815260200160018201548152505081526020019060010190610998565b50505050905060005b8151811015610aa55783828281518110610a76577f4e487b7100000000000000000000000000000000000000000000000000000000600052603260045260246000fd5b60200260200101516020015110610a9257600092505050610f61565b8080610a9d906119ce565b915050610a33565b5060006040518060400160405280600160009054906101000a900473ffffffffffffffffffffffffffffffffffffffff1673ffffffffffffffffffffffffffffffffffffffff1681526020016000815250905060005b8251811015610bd3573373ffffffffffffffffffffffffffffffffffffffff16838281518110610b54577f4e487b7100000000000000000000000000000000000000000000000000000000600052603260045260246000fd5b60200260200101516000015173ffffffffffffffffffffffffffffffffffffffff161415610bc057828181518110610bb5577f4e487b7100000000000000000000000000000000000000000000000000000000600052603260045260246000fd5b602002602001015191505b8080610bcb906119ce565b915050610afb565b506000600160009054906101000a900473ffffffffffffffffffffffffffffffffffffffff1673ffffffffffffffffffffffffffffffffffffffff16826000015173ffffffffffffffffffffffffffffffffffffffff1614610c4657816020015185610c3f91906118df565b9050610c4a565b8490505b80600260009054906101000a900473ffffffffffffffffffffffffffffffffffffffff1673ffffffffffffffffffffffffffffffffffffffff166370a08231336040518263ffffffff1660e01b8152600401610ca691906116a8565b60206040518083038186803b158015610cbe57600080fd5b505afa158015610cd2573d6000803e3d6000fd5b505050506040513d601f19601f82011682018060405250810190610cf691906114b1565b1015610d37576040517f08c379a0000000000000000000000000000000000000000000000000000000008152600401610d2e906117d9565b60405180910390fd5b600260009054906101000a900473ffffffffffffffffffffffffffffffffffffffff1673ffffffffffffffffffffffffffffffffffffffff1663095ea7b330876040518363ffffffff1660e01b8152600401610d94929190611753565b602060405180830381600087803b158015610dae57600080fd5b505af1158015610dc2573d6000803e3d6000fd5b505050506040513d601f19601f82011682018060405250810190610de6919061140b565b50600260009054906101000a900473ffffffffffffffffffffffffffffffffffffffff1673ffffffffffffffffffffffffffffffffffffffff166323b872dd3330846040518463ffffffff1660e01b8152600401610e46939291906116ec565b602060405180830381600087803b158015610e6057600080fd5b505af1158015610e74573d6000803e3d6000fd5b505050506040513d601f19601f82011682018060405250810190610e98919061140b565b50600060405180604001604052803373ffffffffffffffffffffffffffffffffffffffff1681526020018781525090506004600088815260200190815260200160002081908060018154018082558091505060019003906000526020600020906002020160009091909190915060008201518160000160006101000a81548173ffffffffffffffffffffffffffffffffffffffff021916908373ffffffffffffffffffffffffffffffffffffffff16021790555060208201518160010155505060019450505050505b92915050565b60046020528160005260406000208181548110610f8357600080fd5b9060005260206000209060020201600091509150508060000160009054906101000a900473ffffffffffffffffffffffffffffffffffffffff16908060010154905082565b600080600360009054906101000a900473ffffffffffffffffffffffffffffffffffffffff1673ffffffffffffffffffffffffffffffffffffffff1663a02d728233866040518363ffffffff1660e01b8152600401611028929190611723565b602060405180830381600087803b15801561104257600080fd5b505af1158015611056573d6000803e3d6000fd5b505050506040513d601f19601f8201168201806040525081019061107a91906114b1565b9050600060405180604001604052803373ffffffffffffffffffffffffffffffffffffffff1681526020018581525090506004600083815260200190815260200160002081908060018154018082558091505060019003906000526020600020906002020160009091909190915060008201518160000160006101000a81548173ffffffffffffffffffffffffffffffffffffffff021916908373ffffffffffffffffffffffffffffffffffffffff160217905550602082015181600101555050819250505092915050565b60008054906101000a900473ffffffffffffffffffffffffffffffffffffffff1681565b6000600260009054906101000a900473ffffffffffffffffffffffffffffffffffffffff1673ffffffffffffffffffffffffffffffffffffffff1663dd62ed3e30336040518363ffffffff1660e01b81526004016111c99291906116c3565b60206040518083038186803b1580156111e157600080fd5b505afa1580156111f5573d6000803e3d6000fd5b505050506040513d601f19601f8201168201806040525081019061121991906114b1565b905090565b6000600260009054906101000a900473ffffffffffffffffffffffffffffffffffffffff1673ffffffffffffffffffffffffffffffffffffffff166370a08231336040518263ffffffff1660e01b815260040161127b91906116a8565b60206040518083038186803b15801561129357600080fd5b505afa1580156112a7573d6000803e3d6000fd5b505050506040513d601f19601f820116820180604052508101906112cb91906114b1565b905090565b600160009054906101000a900473ffffffffffffffffffffffffffffffffffffffff1681565b6040518060400160405280600073ffffffffffffffffffffffffffffffffffffffff168152602001600081525090565b600061133961133484611859565b611834565b90508281526020810184848401111561135157600080fd5b61135c84828561195b565b509392505050565b60008151905061137381611b4d565b92915050565b60008151905061138881611b64565b92915050565b600082601f83011261139f57600080fd5b81356113af848260208601611326565b91505092915050565b6000813590506113c781611b7b565b92915050565b6000815190506113dc81611b7b565b92915050565b6000602082840312156113f457600080fd5b600061140284828501611364565b91505092915050565b60006020828403121561141d57600080fd5b600061142b84828501611379565b91505092915050565b6000806040838503121561144757600080fd5b600083013567ffffffffffffffff81111561146157600080fd5b61146d8582860161138e565b925050602061147e858286016113b8565b9150509250929050565b60006020828403121561149a57600080fd5b60006114a8848285016113b8565b91505092915050565b6000602082840312156114c357600080fd5b60006114d1848285016113cd565b91505092915050565b600080604083850312156114ed57600080fd5b60006114fb858286016113b8565b925050602061150c858286016113b8565b9150509250929050565b6000611522838361165b565b60408301905092915050565b61153781611913565b82525050565b61154681611913565b82525050565b60006115578261189a565b61156181856118bd565b935061156c8361188a565b8060005b8381101561159d5781516115848882611516565b975061158f836118b0565b925050600181019050611570565b5085935050505092915050565b6115b381611925565b82525050565b60006115c4826118a5565b6115ce81856118ce565b93506115de81856020860161196a565b6115e781611a75565b840191505092915050565b60006115ff602c836118ce565b915061160a82611a86565b604082019050919050565b6000611622602c836118ce565b915061162d82611ad5565b604082019050919050565b60006116456016836118ce565b915061165082611b24565b602082019050919050565b604082016000820151611671600085018261152e565b506020820151611684602085018261168a565b50505050565b61169381611951565b82525050565b6116a281611951565b82525050565b60006020820190506116bd600083018461153d565b92915050565b60006040820190506116d8600083018561153d565b6116e5602083018461153d565b9392505050565b6000606082019050611701600083018661153d565b61170e602083018561153d565b61171b6040830184611699565b949350505050565b6000604082019050611738600083018561153d565b818103602083015261174a81846115b9565b90509392505050565b6000604082019050611768600083018561153d565b6117756020830184611699565b9392505050565b60006020820190508181036000830152611796818461154c565b905092915050565b60006020820190506117b360008301846115aa565b92915050565b600060208201905081810360008301526117d2816115f2565b9050919050565b600060208201905081810360008301526117f281611615565b9050919050565b6000602082019050818103600083015261181281611638565b9050919050565b600060208201905061182e6000830184611699565b92915050565b600061183e61184f565b905061184a828261199d565b919050565b6000604051905090565b600067ffffffffffffffff82111561187457611873611a46565b5b61187d82611a75565b9050602081019050919050565b6000819050602082019050919050565b600081519050919050565b600081519050919050565b6000602082019050919050565b600082825260208201905092915050565b600082825260208201905092915050565b60006118ea82611951565b91506118f583611951565b92508282101561190857611907611a17565b5b828203905092915050565b600061191e82611931565b9050919050565b60008115159050919050565b600073ffffffffffffffffffffffffffffffffffffffff82169050919050565b6000819050919050565b82818337600083830152505050565b60005b8381101561198857808201518184015260208101905061196d565b83811115611997576000848401525b50505050565b6119a682611a75565b810181811067ffffffffffffffff821117156119c5576119c4611a46565b5b80604052505050565b60006119d982611951565b91507fffffffffffffffffffffffffffffffffffffffffffffffffffffffffffffffff821415611a0c57611a0b611a17565b5b600182019050919050565b7f4e487b7100000000000000000000000000000000000000000000000000000000600052601160045260246000fd5b7f4e487b7100000000000000000000000000000000000000000000000000000000600052604160045260246000fd5b6000601f19601f8301169050919050565b7f596f75206d75737420626520746865206f776e6572206f66207468652062696460008201527f20746f20636c61696d2069740000000000000000000000000000000000000000602082015250565b7f596f7520646f6e277420686176652074686520616d6f756e7420796f7527726560008201527f2062696464696e6720666f720000000000000000000000000000000000000000602082015250565b7f546865204e465420646f65736e27742065786973747300000000000000000000600082015250565b611b5681611913565b8114611b6157600080fd5b50565b611b6d81611925565b8114611b7857600080fd5b50565b611b8481611951565b8114611b8f57600080fd5b5056fea264697066735822122001276d8e09f66f658accee6de466831ead6fced71feb156e6710e29560e8001564736f6c63430008040033",
  "immutableReferences": {},
  "source": "// SPDX-License-Identifier: GNU3\r\npragma solidity >=0.4.22 <=0.8.6;\r\nimport \"./IBidC.sol\";\r\nimport \"./IBidCNFT.sol\";\r\n\r\ncontract Bidding {\r\n    address public owner = msg.sender;\r\n    address public burnAddr = 0x0000000000000000000000000000000000000000;\r\n\r\n    IBidC private _token;\r\n    IBidCNFT private _NFT;\r\n\r\n    struct Bid {\r\n        address bidder;\r\n        uint256 price;\r\n    }\r\n\r\n    mapping(uint256 => Bid[]) public _bids;\r\n\r\n    constructor(IBidC token, IBidCNFT NFT) {\r\n        _token = token;\r\n        _NFT = NFT;\r\n    }\r\n\r\n    modifier restricted() {\r\n        require(\r\n            msg.sender == owner,\r\n            \"This function is restricted to the contract's owner\"\r\n        );\r\n        _;\r\n    }\r\n\r\n    function createBid(string memory bidJSON, uint256 defaultPrice) public returns (uint256){\r\n        uint256 nftId = _NFT.createBid(msg.sender, bidJSON);\r\n        Bid memory newBid = Bid(msg.sender,defaultPrice);\r\n        _bids[nftId].push(newBid);\r\n        return nftId;\r\n    }\r\n\r\n    function addBid(uint256 nftId,uint256 amount) public returns (bool){\r\n        // On vrifie que le NFT existe bien\r\n        require(_NFT.exists(nftId),\"The NFT doesn't exists\");\r\n            \r\n        /* \r\n        * On vrifie toutes les enchres en cours\r\n        * si une est dj existante a + cher ou au mme prix\r\n        * on renvoie false\r\n        */ \r\n        Bid[] memory currentBids = _bids[nftId];\r\n        for(uint256 i = 0; i < currentBids.length; i++){\r\n            if(currentBids[i].price >= amount){\r\n                return false;\r\n            }\r\n        }\r\n\r\n        // On vrifie si la personne a dj enchri\r\n        Bid memory alreadyBid = Bid(burnAddr,0);\r\n        for(uint256 i = 0; i < currentBids.length; i++){\r\n            if(currentBids[i].bidder == msg.sender){\r\n                alreadyBid = currentBids[i];\r\n            }\r\n        }\r\n\r\n        /**\r\n        * si la personne a dj enchri, on bloque la diffrence entre la dernire enchre\r\n        * et la nouvelle, sinon on bloque la somme entire\r\n        */\r\n        uint256 lockedAmount = 0;\r\n        if (alreadyBid.bidder != burnAddr){\r\n            lockedAmount = (amount - alreadyBid.price);\r\n        }else{\r\n            lockedAmount = amount;\r\n        }\r\n\r\n        // Si la personne qui enchrit n'a pas l'argent ncssaire\r\n        require(_token.balanceOf(msg.sender) >= lockedAmount,\"You don't have the amount you're bidding for\");\r\n\r\n        // On bloque sur le compte du owner la somme de l'enchre\r\n        _token.approve(address(this), amount);\r\n        _token.transferFrom(msg.sender,address(this), lockedAmount);\r\n\r\n        // si l'enchre est valide, on la cre et on la rajoute dans l'array\r\n        Bid memory newBid = Bid(msg.sender,amount);\r\n        _bids[nftId].push(newBid);\r\n        return true;\r\n    }\r\n\r\n    function viewBids(uint256 nftId) public view returns(Bid[] memory){\r\n        return _bids[nftId];\r\n    }\r\n\r\n    function claimBid(uint256 nftId) public returns(bool) {\r\n        Bid[] memory currentBids = _bids[nftId];\r\n\r\n        // On rcupre la dernire entre, qui est forcment l'enchre la plus haute\r\n        Bid memory winnerBid = currentBids[currentBids.length-1];\r\n\r\n        // On rcupre l'adresse de celui qui possde le NFT\r\n        address nftOwner = _NFT.ownerOf(nftId);\r\n        require((msg.sender == nftOwner),\"You must be the owner of the bid to claim it\");\r\n        // On burn le NFT et on transfre l'argent  celui qui a mis l'enchre\r\n        _NFT.transferFrom(nftOwner, burnAddr, nftId);\r\n        _token.transferFrom(owner, nftOwner, winnerBid.price);\r\n\r\n        // On supprime le vainqueur des enchres pour pouvoir garder uniquement les perdants\r\n        delete currentBids[currentBids.length-1];\r\n\r\n        // On rend les tokens pris aux gens qui ont enchri mais n'ont pas gagn\r\n        for(uint256 i = 0; i < currentBids.length; i++){\r\n            _token.transferFrom(owner, currentBids[i].bidder, currentBids[i].price);\r\n        }\r\n        return true;\r\n        \r\n    }\r\n\r\n    function currentBalance() public view returns(uint256){\r\n        return _token.balanceOf(msg.sender);\r\n    }\r\n\r\n    function getAllowance() public view returns(uint256){\r\n        return _token.allowance(address(this), msg.sender);\r\n    }\r\n}\r\n",
  "sourcePath": "D:/BUREAU/Travail/ESGI/3ESGI IBC/Projet Annuel/PA_2K21/contracts/Bidding.sol",
  "compiler": {
    "name": "solc",
    "version": "0.8.4+commit.c7e474f2.Emscripten.clang"
  },
  "schemaVersion": "3.4.1",
  "updatedAt": "2021-07-27T20:50:17.855Z",
  "networkType": "ethereum",
  "devdoc": {
    "kind": "dev",
    "methods": {},
    "version": 1
  },
  "userdoc": {
    "kind": "user",
    "methods": {},
    "version": 1
  }
}