{
  "contractName": "IBidC",
  "abi": [
    {
      "inputs": [],
      "stateMutability": "nonpayable",
      "type": "constructor"
    },
    {
      "anonymous": false,
      "inputs": [
        {
          "indexed": true,
          "internalType": "address",
          "name": "owner",
          "type": "address"
        },
        {
          "indexed": true,
          "internalType": "address",
          "name": "spender",
          "type": "address"
        },
        {
          "indexed": false,
          "internalType": "uint256",
          "name": "value",
          "type": "uint256"
        }
      ],
      "name": "Approval",
      "type": "event"
    },
    {
      "anonymous": false,
      "inputs": [
        {
          "indexed": true,
          "internalType": "address",
          "name": "from",
          "type": "address"
        },
        {
          "indexed": true,
          "internalType": "address",
          "name": "to",
          "type": "address"
        },
        {
          "indexed": false,
          "internalType": "uint256",
          "name": "value",
          "type": "uint256"
        }
      ],
      "name": "Transfer",
      "type": "event"
    },
    {
      "inputs": [
        {
          "internalType": "address",
          "name": "owner",
          "type": "address"
        },
        {
          "internalType": "address",
          "name": "spender",
          "type": "address"
        }
      ],
      "name": "allowance",
      "outputs": [
        {
          "internalType": "uint256",
          "name": "",
          "type": "uint256"
        }
      ],
      "stateMutability": "view",
      "type": "function",
      "constant": true
    },
    {
      "inputs": [
        {
          "internalType": "address",
          "name": "spender",
          "type": "address"
        },
        {
          "internalType": "uint256",
          "name": "amount",
          "type": "uint256"
        }
      ],
      "name": "approve",
      "outputs": [
        {
          "internalType": "bool",
          "name": "",
          "type": "bool"
        }
      ],
      "stateMutability": "nonpayable",
      "type": "function"
    },
    {
      "inputs": [
        {
          "internalType": "address",
          "name": "account",
          "type": "address"
        }
      ],
      "name": "balanceOf",
      "outputs": [
        {
          "internalType": "uint256",
          "name": "",
          "type": "uint256"
        }
      ],
      "stateMutability": "view",
      "type": "function",
      "constant": true
    },
    {
      "inputs": [
        {
          "internalType": "address",
          "name": "spender",
          "type": "address"
        },
        {
          "internalType": "uint256",
          "name": "subtractedValue",
          "type": "uint256"
        }
      ],
      "name": "decreaseAllowance",
      "outputs": [
        {
          "internalType": "bool",
          "name": "",
          "type": "bool"
        }
      ],
      "stateMutability": "nonpayable",
      "type": "function"
    },
    {
      "inputs": [
        {
          "internalType": "address",
          "name": "spender",
          "type": "address"
        },
        {
          "internalType": "uint256",
          "name": "addedValue",
          "type": "uint256"
        }
      ],
      "name": "increaseAllowance",
      "outputs": [
        {
          "internalType": "bool",
          "name": "",
          "type": "bool"
        }
      ],
      "stateMutability": "nonpayable",
      "type": "function"
    },
    {
      "inputs": [],
      "name": "name",
      "outputs": [
        {
          "internalType": "string",
          "name": "",
          "type": "string"
        }
      ],
      "stateMutability": "view",
      "type": "function",
      "constant": true
    },
    {
      "inputs": [],
      "name": "symbol",
      "outputs": [
        {
          "internalType": "string",
          "name": "",
          "type": "string"
        }
      ],
      "stateMutability": "view",
      "type": "function",
      "constant": true
    },
    {
      "inputs": [],
      "name": "totalSupply",
      "outputs": [
        {
          "internalType": "uint256",
          "name": "",
          "type": "uint256"
        }
      ],
      "stateMutability": "view",
      "type": "function",
      "constant": true
    },
    {
      "inputs": [
        {
          "internalType": "address",
          "name": "recipient",
          "type": "address"
        },
        {
          "internalType": "uint256",
          "name": "amount",
          "type": "uint256"
        }
      ],
      "name": "transfer",
      "outputs": [
        {
          "internalType": "bool",
          "name": "",
          "type": "bool"
        }
      ],
      "stateMutability": "nonpayable",
      "type": "function"
    },
    {
      "inputs": [
        {
          "internalType": "address",
          "name": "sender",
          "type": "address"
        },
        {
          "internalType": "address",
          "name": "recipient",
          "type": "address"
        },
        {
          "internalType": "uint256",
          "name": "amount",
          "type": "uint256"
        }
      ],
      "name": "transferFrom",
      "outputs": [
        {
          "internalType": "bool",
          "name": "",
          "type": "bool"
        }
      ],
      "stateMutability": "nonpayable",
      "type": "function"
    },
    {
      "inputs": [],
      "name": "decimals",
      "outputs": [
        {
          "internalType": "uint8",
          "name": "",
          "type": "uint8"
        }
      ],
      "stateMutability": "view",
      "type": "function",
      "constant": true
    },
    {
      "inputs": [],
      "name": "getMe",
      "outputs": [
        {
          "internalType": "address",
          "name": "",
          "type": "address"
        }
      ],
      "stateMutability": "view",
      "type": "function",
      "constant": true
    }
  ],
  "bytecode": "0x608060405264417eab9c966005553480156200001a57600080fd5b506040518060400160405280600581526020017f49426964430000000000000000000000000000000000000000000000000000008152506040518060400160405280600381526020017f494243000000000000000000000000000000000000000000000000000000000081525081600390805190602001906200009f9291906200023f565b508060049080519060200190620000b89291906200023f565b505050620000cf33600554620000d560201b60201c565b6200049b565b600073ffffffffffffffffffffffffffffffffffffffff168273ffffffffffffffffffffffffffffffffffffffff16141562000148576040517f08c379a00000000000000000000000000000000000000000000000000000000081526004016200013f9062000327565b60405180910390fd5b6200015c600083836200023a60201b60201c565b806002600082825462000170919062000377565b92505081905550806000808473ffffffffffffffffffffffffffffffffffffffff1673ffffffffffffffffffffffffffffffffffffffff1681526020019081526020016000206000828254620001c7919062000377565b925050819055508173ffffffffffffffffffffffffffffffffffffffff16600073ffffffffffffffffffffffffffffffffffffffff167fddf252ad1be2c89b69c2b068fc378daa952ba7f163c4a11628f55a4df523b3ef836040516200022e919062000349565b60405180910390a35050565b505050565b8280546200024d90620003de565b90600052602060002090601f016020900481019282620002715760008555620002bd565b82601f106200028c57805160ff1916838001178555620002bd565b82800160010185558215620002bd579182015b82811115620002bc5782518255916020019190600101906200029f565b5b509050620002cc9190620002d0565b5090565b5b80821115620002eb576000816000905550600101620002d1565b5090565b6000620002fe601f8362000366565b91506200030b8262000472565b602082019050919050565b6200032181620003d4565b82525050565b600060208201905081810360008301526200034281620002ef565b9050919050565b600060208201905062000360600083018462000316565b92915050565b600082825260208201905092915050565b60006200038482620003d4565b91506200039183620003d4565b9250827fffffffffffffffffffffffffffffffffffffffffffffffffffffffffffffffff03821115620003c957620003c862000414565b5b828201905092915050565b6000819050919050565b60006002820490506001821680620003f757607f821691505b602082108114156200040e576200040d62000443565b5b50919050565b7f4e487b7100000000000000000000000000000000000000000000000000000000600052601160045260246000fd5b7f4e487b7100000000000000000000000000000000000000000000000000000000600052602260045260246000fd5b7f45524332303a206d696e7420746f20746865207a65726f206164647265737300600082015250565b61142b80620004ab6000396000f3fe608060405234801561001057600080fd5b50600436106100b45760003560e01c806370a082311161007157806370a08231146101a357806395d89b41146101d3578063a457c2d7146101f1578063a9059cbb14610221578063c11e1ff314610251578063dd62ed3e1461026f576100b4565b806306fdde03146100b9578063095ea7b3146100d757806318160ddd1461010757806323b872dd14610125578063313ce567146101555780633950935114610173575b600080fd5b6100c161029f565b6040516100ce9190610e97565b60405180910390f35b6100f160048036038101906100ec9190610cbb565b610331565b6040516100fe9190610e7c565b60405180910390f35b61010f61034f565b60405161011c9190610f99565b60405180910390f35b61013f600480360381019061013a9190610c6c565b610359565b60405161014c9190610e7c565b60405180910390f35b61015d61045a565b60405161016a9190610fb4565b60405180910390f35b61018d60048036038101906101889190610cbb565b61045f565b60405161019a9190610e7c565b60405180910390f35b6101bd60048036038101906101b89190610c07565b61050b565b6040516101ca9190610f99565b60405180910390f35b6101db610553565b6040516101e89190610e97565b60405180910390f35b61020b60048036038101906102069190610cbb565b6105e5565b6040516102189190610e7c565b60405180910390f35b61023b60048036038101906102369190610cbb565b6106d9565b6040516102489190610e7c565b60405180910390f35b6102596106f7565b6040516102669190610e61565b60405180910390f35b61028960048036038101906102849190610c30565b6106ff565b6040516102969190610f99565b60405180910390f35b6060600380546102ae906110fd565b80601f01602080910402602001604051908101604052809291908181526020018280546102da906110fd565b80156103275780601f106102fc57610100808354040283529160200191610327565b820191906000526020600020905b81548152906001019060200180831161030a57829003601f168201915b5050505050905090565b600061034561033e610786565b848461078e565b6001905092915050565b6000600254905090565b6000610366848484610959565b6000600160008673ffffffffffffffffffffffffffffffffffffffff1673ffffffffffffffffffffffffffffffffffffffff16815260200190815260200160002060006103b1610786565b73ffffffffffffffffffffffffffffffffffffffff1673ffffffffffffffffffffffffffffffffffffffff16815260200190815260200160002054905082811015610431576040517f08c379a000000000000000000000000000000000000000000000000000000000815260040161042890610f19565b60405180910390fd5b61044e8561043d610786565b85846104499190611041565b61078e565b60019150509392505050565b600090565b600061050161046c610786565b84846001600061047a610786565b73ffffffffffffffffffffffffffffffffffffffff1673ffffffffffffffffffffffffffffffffffffffff16815260200190815260200160002060008873ffffffffffffffffffffffffffffffffffffffff1673ffffffffffffffffffffffffffffffffffffffff168152602001908152602001600020546104fc9190610feb565b61078e565b6001905092915050565b60008060008373ffffffffffffffffffffffffffffffffffffffff1673ffffffffffffffffffffffffffffffffffffffff168152602001908152602001600020549050919050565b606060048054610562906110fd565b80601f016020809104026020016040519081016040528092919081815260200182805461058e906110fd565b80156105db5780601f106105b0576101008083540402835291602001916105db565b820191906000526020600020905b8154815290600101906020018083116105be57829003601f168201915b5050505050905090565b600080600160006105f4610786565b73ffffffffffffffffffffffffffffffffffffffff1673ffffffffffffffffffffffffffffffffffffffff16815260200190815260200160002060008573ffffffffffffffffffffffffffffffffffffffff1673ffffffffffffffffffffffffffffffffffffffff168152602001908152602001600020549050828110156106b1576040517f08c379a00000000000000000000000000000000000000000000000000000000081526004016106a890610f79565b60405180910390fd5b6106ce6106bc610786565b8585846106c99190611041565b61078e565b600191505092915050565b60006106ed6106e6610786565b8484610959565b6001905092915050565b600033905090565b6000600160008473ffffffffffffffffffffffffffffffffffffffff1673ffffffffffffffffffffffffffffffffffffffff16815260200190815260200160002060008373ffffffffffffffffffffffffffffffffffffffff1673ffffffffffffffffffffffffffffffffffffffff16815260200190815260200160002054905092915050565b600033905090565b600073ffffffffffffffffffffffffffffffffffffffff168373ffffffffffffffffffffffffffffffffffffffff1614156107fe576040517f08c379a00000000000000000000000000000000000000000000000000000000081526004016107f590610f59565b60405180910390fd5b600073ffffffffffffffffffffffffffffffffffffffff168273ffffffffffffffffffffffffffffffffffffffff16141561086e576040517f08c379a000000000000000000000000000000000000000000000000000000000815260040161086590610ed9565b60405180910390fd5b80600160008573ffffffffffffffffffffffffffffffffffffffff1673ffffffffffffffffffffffffffffffffffffffff16815260200190815260200160002060008473ffffffffffffffffffffffffffffffffffffffff1673ffffffffffffffffffffffffffffffffffffffff168152602001908152602001600020819055508173ffffffffffffffffffffffffffffffffffffffff168373ffffffffffffffffffffffffffffffffffffffff167f8c5be1e5ebec7d5bd14f71427d1e84f3dd0314c0f7b2291e5b200ac8c7c3b9258360405161094c9190610f99565b60405180910390a3505050565b600073ffffffffffffffffffffffffffffffffffffffff168373ffffffffffffffffffffffffffffffffffffffff1614156109c9576040517f08c379a00000000000000000000000000000000000000000000000000000000081526004016109c090610f39565b60405180910390fd5b600073ffffffffffffffffffffffffffffffffffffffff168273ffffffffffffffffffffffffffffffffffffffff161415610a39576040517f08c379a0000000000000000000000000000000000000000000000000000000008152600401610a3090610eb9565b60405180910390fd5b610a44838383610bd8565b60008060008573ffffffffffffffffffffffffffffffffffffffff1673ffffffffffffffffffffffffffffffffffffffff16815260200190815260200160002054905081811015610aca576040517f08c379a0000000000000000000000000000000000000000000000000000000008152600401610ac190610ef9565b60405180910390fd5b8181610ad69190611041565b6000808673ffffffffffffffffffffffffffffffffffffffff1673ffffffffffffffffffffffffffffffffffffffff16815260200190815260200160002081905550816000808573ffffffffffffffffffffffffffffffffffffffff1673ffffffffffffffffffffffffffffffffffffffff1681526020019081526020016000206000828254610b669190610feb565b925050819055508273ffffffffffffffffffffffffffffffffffffffff168473ffffffffffffffffffffffffffffffffffffffff167fddf252ad1be2c89b69c2b068fc378daa952ba7f163c4a11628f55a4df523b3ef84604051610bca9190610f99565b60405180910390a350505050565b505050565b600081359050610bec816113c7565b92915050565b600081359050610c01816113de565b92915050565b600060208284031215610c1957600080fd5b6000610c2784828501610bdd565b91505092915050565b60008060408385031215610c4357600080fd5b6000610c5185828601610bdd565b9250506020610c6285828601610bdd565b9150509250929050565b600080600060608486031215610c8157600080fd5b6000610c8f86828701610bdd565b9350506020610ca086828701610bdd565b9250506040610cb186828701610bf2565b9150509250925092565b60008060408385031215610cce57600080fd5b6000610cdc85828601610bdd565b9250506020610ced85828601610bf2565b9150509250929050565b610d0081611075565b82525050565b610d0f81611087565b82525050565b6000610d2082610fcf565b610d2a8185610fda565b9350610d3a8185602086016110ca565b610d438161118d565b840191505092915050565b6000610d5b602383610fda565b9150610d668261119e565b604082019050919050565b6000610d7e602283610fda565b9150610d89826111ed565b604082019050919050565b6000610da1602683610fda565b9150610dac8261123c565b604082019050919050565b6000610dc4602883610fda565b9150610dcf8261128b565b604082019050919050565b6000610de7602583610fda565b9150610df2826112da565b604082019050919050565b6000610e0a602483610fda565b9150610e1582611329565b604082019050919050565b6000610e2d602583610fda565b9150610e3882611378565b604082019050919050565b610e4c816110b3565b82525050565b610e5b816110bd565b82525050565b6000602082019050610e766000830184610cf7565b92915050565b6000602082019050610e916000830184610d06565b92915050565b60006020820190508181036000830152610eb18184610d15565b905092915050565b60006020820190508181036000830152610ed281610d4e565b9050919050565b60006020820190508181036000830152610ef281610d71565b9050919050565b60006020820190508181036000830152610f1281610d94565b9050919050565b60006020820190508181036000830152610f3281610db7565b9050919050565b60006020820190508181036000830152610f5281610dda565b9050919050565b60006020820190508181036000830152610f7281610dfd565b9050919050565b60006020820190508181036000830152610f9281610e20565b9050919050565b6000602082019050610fae6000830184610e43565b92915050565b6000602082019050610fc96000830184610e52565b92915050565b600081519050919050565b600082825260208201905092915050565b6000610ff6826110b3565b9150611001836110b3565b9250827fffffffffffffffffffffffffffffffffffffffffffffffffffffffffffffffff038211156110365761103561112f565b5b828201905092915050565b600061104c826110b3565b9150611057836110b3565b92508282101561106a5761106961112f565b5b828203905092915050565b600061108082611093565b9050919050565b60008115159050919050565b600073ffffffffffffffffffffffffffffffffffffffff82169050919050565b6000819050919050565b600060ff82169050919050565b60005b838110156110e85780820151818401526020810190506110cd565b838111156110f7576000848401525b50505050565b6000600282049050600182168061111557607f821691505b602082108114156111295761112861115e565b5b50919050565b7f4e487b7100000000000000000000000000000000000000000000000000000000600052601160045260246000fd5b7f4e487b7100000000000000000000000000000000000000000000000000000000600052602260045260246000fd5b6000601f19601f8301169050919050565b7f45524332303a207472616e7366657220746f20746865207a65726f206164647260008201527f6573730000000000000000000000000000000000000000000000000000000000602082015250565b7f45524332303a20617070726f766520746f20746865207a65726f20616464726560008201527f7373000000000000000000000000000000000000000000000000000000000000602082015250565b7f45524332303a207472616e7366657220616d6f756e742065786365656473206260008201527f616c616e63650000000000000000000000000000000000000000000000000000602082015250565b7f45524332303a207472616e7366657220616d6f756e742065786365656473206160008201527f6c6c6f77616e6365000000000000000000000000000000000000000000000000602082015250565b7f45524332303a207472616e736665722066726f6d20746865207a65726f20616460008201527f6472657373000000000000000000000000000000000000000000000000000000602082015250565b7f45524332303a20617070726f76652066726f6d20746865207a65726f2061646460008201527f7265737300000000000000000000000000000000000000000000000000000000602082015250565b7f45524332303a2064656372656173656420616c6c6f77616e63652062656c6f7760008201527f207a65726f000000000000000000000000000000000000000000000000000000602082015250565b6113d081611075565b81146113db57600080fd5b50565b6113e7816110b3565b81146113f257600080fd5b5056fea26469706673582212200c2e357c36ba248a063a8b710d372dc12adc4cac3e50bde52b480621f2ed15c564736f6c63430008040033",
  "immutableReferences": {},
  "source": "// SPDX-License-Identifier: GNU3\r\npragma solidity >=0.4.22 <=0.8.6;\r\n\r\nimport \"@openzeppelin/contracts/token/ERC20/ERC20.sol\";\r\n\r\ncontract IBidC is ERC20 {\r\n    \r\n    uint256 initialSupply = 281298050198;\r\n\r\n    constructor() ERC20(\"IBidC\", \"IBC\") {\r\n        _mint(msg.sender, initialSupply);\r\n    }\r\n\r\n    function decimals() public view virtual override returns (uint8) {\r\n        return 0;\r\n    }\r\n\r\n    function getMe() public view returns(address){\r\n        return msg.sender;\r\n    }\r\n}",
  "sourcePath": "D:/BUREAU/Travail/ESGI/3ESGI IBC/Projet Annuel/PA_2K21/contracts/IBidC.sol",
  "compiler": {
    "name": "solc",
    "version": "0.8.4+commit.c7e474f2.Emscripten.clang"
  },
  "schemaVersion": "3.4.1",
  "updatedAt": "2021-07-29T19:23:43.908Z",
  "networkType": "ethereum",
  "devdoc": {
    "kind": "dev",
    "methods": {
      "allowance(address,address)": {
        "details": "See {IERC20-allowance}."
      },
      "approve(address,uint256)": {
        "details": "See {IERC20-approve}. Requirements: - `spender` cannot be the zero address."
      },
      "balanceOf(address)": {
        "details": "See {IERC20-balanceOf}."
      },
      "decimals()": {
        "details": "Returns the number of decimals used to get its user representation. For example, if `decimals` equals `2`, a balance of `505` tokens should be displayed to a user as `5,05` (`505 / 10 ** 2`). Tokens usually opt for a value of 18, imitating the relationship between Ether and Wei. This is the value {ERC20} uses, unless this function is overridden; NOTE: This information is only used for _display_ purposes: it in no way affects any of the arithmetic of the contract, including {IERC20-balanceOf} and {IERC20-transfer}."
      },
      "decreaseAllowance(address,uint256)": {
        "details": "Atomically decreases the allowance granted to `spender` by the caller. This is an alternative to {approve} that can be used as a mitigation for problems described in {IERC20-approve}. Emits an {Approval} event indicating the updated allowance. Requirements: - `spender` cannot be the zero address. - `spender` must have allowance for the caller of at least `subtractedValue`."
      },
      "increaseAllowance(address,uint256)": {
        "details": "Atomically increases the allowance granted to `spender` by the caller. This is an alternative to {approve} that can be used as a mitigation for problems described in {IERC20-approve}. Emits an {Approval} event indicating the updated allowance. Requirements: - `spender` cannot be the zero address."
      },
      "name()": {
        "details": "Returns the name of the token."
      },
      "symbol()": {
        "details": "Returns the symbol of the token, usually a shorter version of the name."
      },
      "totalSupply()": {
        "details": "See {IERC20-totalSupply}."
      },
      "transfer(address,uint256)": {
        "details": "See {IERC20-transfer}. Requirements: - `recipient` cannot be the zero address. - the caller must have a balance of at least `amount`."
      },
      "transferFrom(address,address,uint256)": {
        "details": "See {IERC20-transferFrom}. Emits an {Approval} event indicating the updated allowance. This is not required by the EIP. See the note at the beginning of {ERC20}. Requirements: - `sender` and `recipient` cannot be the zero address. - `sender` must have a balance of at least `amount`. - the caller must have allowance for ``sender``'s tokens of at least `amount`."
      }
    },
    "version": 1
  },
  "userdoc": {
    "kind": "user",
    "methods": {},
    "version": 1
  }
}