{
  "contractName": "IBidCNFT",
  "abi": [
    {
      "inputs": [],
      "stateMutability": "nonpayable",
      "type": "constructor"
    },
    {
      "anonymous": false,
      "inputs": [
        {
          "indexed": true,
          "internalType": "address",
          "name": "owner",
          "type": "address"
        },
        {
          "indexed": true,
          "internalType": "address",
          "name": "approved",
          "type": "address"
        },
        {
          "indexed": true,
          "internalType": "uint256",
          "name": "tokenId",
          "type": "uint256"
        }
      ],
      "name": "Approval",
      "type": "event"
    },
    {
      "anonymous": false,
      "inputs": [
        {
          "indexed": true,
          "internalType": "address",
          "name": "owner",
          "type": "address"
        },
        {
          "indexed": true,
          "internalType": "address",
          "name": "operator",
          "type": "address"
        },
        {
          "indexed": false,
          "internalType": "bool",
          "name": "approved",
          "type": "bool"
        }
      ],
      "name": "ApprovalForAll",
      "type": "event"
    },
    {
      "anonymous": false,
      "inputs": [
        {
          "indexed": true,
          "internalType": "address",
          "name": "from",
          "type": "address"
        },
        {
          "indexed": true,
          "internalType": "address",
          "name": "to",
          "type": "address"
        },
        {
          "indexed": true,
          "internalType": "uint256",
          "name": "tokenId",
          "type": "uint256"
        }
      ],
      "name": "Transfer",
      "type": "event"
    },
    {
      "inputs": [
        {
          "internalType": "address",
          "name": "to",
          "type": "address"
        },
        {
          "internalType": "uint256",
          "name": "tokenId",
          "type": "uint256"
        }
      ],
      "name": "approve",
      "outputs": [],
      "stateMutability": "nonpayable",
      "type": "function"
    },
    {
      "inputs": [
        {
          "internalType": "address",
          "name": "owner",
          "type": "address"
        }
      ],
      "name": "balanceOf",
      "outputs": [
        {
          "internalType": "uint256",
          "name": "",
          "type": "uint256"
        }
      ],
      "stateMutability": "view",
      "type": "function",
      "constant": true
    },
    {
      "inputs": [
        {
          "internalType": "uint256",
          "name": "tokenId",
          "type": "uint256"
        }
      ],
      "name": "getApproved",
      "outputs": [
        {
          "internalType": "address",
          "name": "",
          "type": "address"
        }
      ],
      "stateMutability": "view",
      "type": "function",
      "constant": true
    },
    {
      "inputs": [
        {
          "internalType": "address",
          "name": "owner",
          "type": "address"
        },
        {
          "internalType": "address",
          "name": "operator",
          "type": "address"
        }
      ],
      "name": "isApprovedForAll",
      "outputs": [
        {
          "internalType": "bool",
          "name": "",
          "type": "bool"
        }
      ],
      "stateMutability": "view",
      "type": "function",
      "constant": true
    },
    {
      "inputs": [],
      "name": "name",
      "outputs": [
        {
          "internalType": "string",
          "name": "",
          "type": "string"
        }
      ],
      "stateMutability": "view",
      "type": "function",
      "constant": true
    },
    {
      "inputs": [
        {
          "internalType": "uint256",
          "name": "tokenId",
          "type": "uint256"
        }
      ],
      "name": "ownerOf",
      "outputs": [
        {
          "internalType": "address",
          "name": "",
          "type": "address"
        }
      ],
      "stateMutability": "view",
      "type": "function",
      "constant": true
    },
    {
      "inputs": [
        {
          "internalType": "address",
          "name": "from",
          "type": "address"
        },
        {
          "internalType": "address",
          "name": "to",
          "type": "address"
        },
        {
          "internalType": "uint256",
          "name": "tokenId",
          "type": "uint256"
        }
      ],
      "name": "safeTransferFrom",
      "outputs": [],
      "stateMutability": "nonpayable",
      "type": "function"
    },
    {
      "inputs": [
        {
          "internalType": "address",
          "name": "from",
          "type": "address"
        },
        {
          "internalType": "address",
          "name": "to",
          "type": "address"
        },
        {
          "internalType": "uint256",
          "name": "tokenId",
          "type": "uint256"
        },
        {
          "internalType": "bytes",
          "name": "_data",
          "type": "bytes"
        }
      ],
      "name": "safeTransferFrom",
      "outputs": [],
      "stateMutability": "nonpayable",
      "type": "function"
    },
    {
      "inputs": [
        {
          "internalType": "address",
          "name": "operator",
          "type": "address"
        },
        {
          "internalType": "bool",
          "name": "approved",
          "type": "bool"
        }
      ],
      "name": "setApprovalForAll",
      "outputs": [],
      "stateMutability": "nonpayable",
      "type": "function"
    },
    {
      "inputs": [
        {
          "internalType": "bytes4",
          "name": "interfaceId",
          "type": "bytes4"
        }
      ],
      "name": "supportsInterface",
      "outputs": [
        {
          "internalType": "bool",
          "name": "",
          "type": "bool"
        }
      ],
      "stateMutability": "view",
      "type": "function",
      "constant": true
    },
    {
      "inputs": [],
      "name": "symbol",
      "outputs": [
        {
          "internalType": "string",
          "name": "",
          "type": "string"
        }
      ],
      "stateMutability": "view",
      "type": "function",
      "constant": true
    },
    {
      "inputs": [
        {
          "internalType": "uint256",
          "name": "tokenId",
          "type": "uint256"
        }
      ],
      "name": "tokenURI",
      "outputs": [
        {
          "internalType": "string",
          "name": "",
          "type": "string"
        }
      ],
      "stateMutability": "view",
      "type": "function",
      "constant": true
    },
    {
      "inputs": [
        {
          "internalType": "address",
          "name": "from",
          "type": "address"
        },
        {
          "internalType": "address",
          "name": "to",
          "type": "address"
        },
        {
          "internalType": "uint256",
          "name": "tokenId",
          "type": "uint256"
        }
      ],
      "name": "transferFrom",
      "outputs": [],
      "stateMutability": "nonpayable",
      "type": "function"
    },
    {
      "inputs": [
        {
          "internalType": "address",
          "name": "player",
          "type": "address"
        },
        {
          "internalType": "string",
          "name": "tokenJSON",
          "type": "string"
        }
      ],
      "name": "createBid",
      "outputs": [
        {
          "internalType": "uint256",
          "name": "",
          "type": "uint256"
        }
      ],
      "stateMutability": "nonpayable",
      "type": "function"
    },
    {
      "inputs": [
        {
          "internalType": "uint256",
          "name": "nftId",
          "type": "uint256"
        }
      ],
      "name": "exists",
      "outputs": [
        {
          "internalType": "bool",
          "name": "",
          "type": "bool"
        }
      ],
      "stateMutability": "view",
      "type": "function",
      "constant": true
    },
    {
      "inputs": [],
      "name": "lastCreatedNft",
      "outputs": [
        {
          "internalType": "uint256",
          "name": "",
          "type": "uint256"
        }
      ],
      "stateMutability": "view",
      "type": "function",
      "constant": true
    },
    {
      "inputs": [],
      "name": "getMe",
      "outputs": [
        {
          "internalType": "address",
          "name": "",
          "type": "address"
        }
      ],
      "stateMutability": "view",
      "type": "function",
      "constant": true
    }
  ],
  "bytecode": "0x60806040523480156200001157600080fd5b506040518060400160405280600881526020017f49426964434e46540000000000000000000000000000000000000000000000008152506040518060400160405280600381526020017f4249440000000000000000000000000000000000000000000000000000000000815250816000908051906020019062000096929190620000b8565b508060019080519060200190620000af929190620000b8565b505050620001cd565b828054620000c69062000168565b90600052602060002090601f016020900481019282620000ea576000855562000136565b82601f106200010557805160ff191683800117855562000136565b8280016001018555821562000136579182015b828111156200013557825182559160200191906001019062000118565b5b50905062000145919062000149565b5090565b5b80821115620001645760008160009055506001016200014a565b5090565b600060028204905060018216806200018157607f821691505b602082108114156200019857620001976200019e565b5b50919050565b7f4e487b7100000000000000000000000000000000000000000000000000000000600052602260045260246000fd5b612c2480620001dd6000396000f3fe608060405234801561001057600080fd5b506004361061010b5760003560e01c806370a08231116100a2578063a22cb46511610071578063a22cb465146102de578063b88d4fde146102fa578063c11e1ff314610316578063c87b56dd14610334578063e985e9c5146103645761010b565b806370a0823114610242578063758607f31461027257806395d89b4114610290578063a02d7282146102ae5761010b565b806323b872dd116100de57806323b872dd146101aa57806342842e0e146101c65780634f558e79146101e25780636352211e146102125761010b565b806301ffc9a71461011057806306fdde0314610140578063081812fc1461015e578063095ea7b31461018e575b600080fd5b61012a60048036038101906101259190611cd1565b610394565b60405161013791906120d7565b60405180910390f35b610148610476565b60405161015591906120f2565b60405180910390f35b61017860048036038101906101739190611d23565b610508565b6040516101859190612070565b60405180910390f35b6101a860048036038101906101a39190611c95565b61058d565b005b6101c460048036038101906101bf9190611b3b565b6106a5565b005b6101e060048036038101906101db9190611b3b565b610705565b005b6101fc60048036038101906101f79190611d23565b610725565b60405161020991906120d7565b60405180910390f35b61022c60048036038101906102279190611d23565b610737565b6040516102399190612070565b60405180910390f35b61025c60048036038101906102579190611ad6565b6107e9565b6040516102699190612314565b60405180910390f35b61027a6108a1565b6040516102879190612314565b60405180910390f35b6102986108b2565b6040516102a591906120f2565b60405180910390f35b6102c860048036038101906102c39190611c41565b610944565b6040516102d59190612314565b60405180910390f35b6102f860048036038101906102f39190611c05565b61097c565b005b610314600480360381019061030f9190611b8a565b610afd565b005b61031e610b5f565b60405161032b9190612070565b60405180910390f35b61034e60048036038101906103499190611d23565b610b67565b60405161035b91906120f2565b60405180910390f35b61037e60048036038101906103799190611aff565b610cb9565b60405161038b91906120d7565b60405180910390f35b60007f80ac58cd000000000000000000000000000000000000000000000000000000007bffffffffffffffffffffffffffffffffffffffffffffffffffffffff1916827bffffffffffffffffffffffffffffffffffffffffffffffffffffffff1916148061045f57507f5b5e139f000000000000000000000000000000000000000000000000000000007bffffffffffffffffffffffffffffffffffffffffffffffffffffffff1916827bffffffffffffffffffffffffffffffffffffffffffffffffffffffff1916145b8061046f575061046e82610d4d565b5b9050919050565b6060600080546104859061256a565b80601f01602080910402602001604051908101604052809291908181526020018280546104b19061256a565b80156104fe5780601f106104d3576101008083540402835291602001916104fe565b820191906000526020600020905b8154815290600101906020018083116104e157829003601f168201915b5050505050905090565b600061051382610db7565b610552576040517f08c379a000000000000000000000000000000000000000000000000000000000815260040161054990612274565b60405180910390fd5b6004600083815260200190815260200160002060009054906101000a900473ffffffffffffffffffffffffffffffffffffffff169050919050565b600061059882610737565b90508073ffffffffffffffffffffffffffffffffffffffff168373ffffffffffffffffffffffffffffffffffffffff161415610609576040517f08c379a0000000000000000000000000000000000000000000000000000000008152600401610600906122d4565b60405180910390fd5b8073ffffffffffffffffffffffffffffffffffffffff16610628610e23565b73ffffffffffffffffffffffffffffffffffffffff161480610657575061065681610651610e23565b610cb9565b5b610696576040517f08c379a000000000000000000000000000000000000000000000000000000000815260040161068d906121b4565b60405180910390fd5b6106a08383610e2b565b505050565b6106b66106b0610e23565b82610ee4565b6106f5576040517f08c379a00000000000000000000000000000000000000000000000000000000081526004016106ec906122f4565b60405180910390fd5b610700838383610fc2565b505050565b61072083838360405180602001604052806000815250610afd565b505050565b600061073082610db7565b9050919050565b6000806002600084815260200190815260200160002060009054906101000a900473ffffffffffffffffffffffffffffffffffffffff169050600073ffffffffffffffffffffffffffffffffffffffff168173ffffffffffffffffffffffffffffffffffffffff1614156107e0576040517f08c379a00000000000000000000000000000000000000000000000000000000081526004016107d7906121f4565b60405180910390fd5b80915050919050565b60008073ffffffffffffffffffffffffffffffffffffffff168273ffffffffffffffffffffffffffffffffffffffff16141561085a576040517f08c379a0000000000000000000000000000000000000000000000000000000008152600401610851906121d4565b60405180910390fd5b600360008373ffffffffffffffffffffffffffffffffffffffff1673ffffffffffffffffffffffffffffffffffffffff168152602001908152602001600020549050919050565b60006108ad600761121e565b905090565b6060600180546108c19061256a565b80601f01602080910402602001604051908101604052809291908181526020018280546108ed9061256a565b801561093a5780601f1061090f5761010080835404028352916020019161093a565b820191906000526020600020905b81548152906001019060200180831161091d57829003601f168201915b5050505050905090565b6000610950600761122c565b600061095c600761121e565b90506109688482611242565b6109728184611410565b8091505092915050565b610984610e23565b73ffffffffffffffffffffffffffffffffffffffff168273ffffffffffffffffffffffffffffffffffffffff1614156109f2576040517f08c379a00000000000000000000000000000000000000000000000000000000081526004016109e990612174565b60405180910390fd5b80600560006109ff610e23565b73ffffffffffffffffffffffffffffffffffffffff1673ffffffffffffffffffffffffffffffffffffffff16815260200190815260200160002060008473ffffffffffffffffffffffffffffffffffffffff1673ffffffffffffffffffffffffffffffffffffffff16815260200190815260200160002060006101000a81548160ff0219169083151502179055508173ffffffffffffffffffffffffffffffffffffffff16610aac610e23565b73ffffffffffffffffffffffffffffffffffffffff167f17307eab39ab6107e8899845ad3d59bd9653f200f220920489ca2b5937696c3183604051610af191906120d7565b60405180910390a35050565b610b0e610b08610e23565b83610ee4565b610b4d576040517f08c379a0000000000000000000000000000000000000000000000000000000008152600401610b44906122f4565b60405180910390fd5b610b5984848484611484565b50505050565b600033905090565b6060610b7282610db7565b610bb1576040517f08c379a0000000000000000000000000000000000000000000000000000000008152600401610ba890612254565b60405180910390fd5b6000600660008481526020019081526020016000208054610bd19061256a565b80601f0160208091040260200160405190810160405280929190818152602001828054610bfd9061256a565b8015610c4a5780601f10610c1f57610100808354040283529160200191610c4a565b820191906000526020600020905b815481529060010190602001808311610c2d57829003601f168201915b505050505090506000610c5b6114e0565b9050600081511415610c71578192505050610cb4565b600082511115610ca6578082604051602001610c8e92919061204c565b60405160208183030381529060405292505050610cb4565b610caf846114f7565b925050505b919050565b6000600560008473ffffffffffffffffffffffffffffffffffffffff1673ffffffffffffffffffffffffffffffffffffffff16815260200190815260200160002060008373ffffffffffffffffffffffffffffffffffffffff1673ffffffffffffffffffffffffffffffffffffffff16815260200190815260200160002060009054906101000a900460ff16905092915050565b60007f01ffc9a7000000000000000000000000000000000000000000000000000000007bffffffffffffffffffffffffffffffffffffffffffffffffffffffff1916827bffffffffffffffffffffffffffffffffffffffffffffffffffffffff1916149050919050565b60008073ffffffffffffffffffffffffffffffffffffffff166002600084815260200190815260200160002060009054906101000a900473ffffffffffffffffffffffffffffffffffffffff1673ffffffffffffffffffffffffffffffffffffffff1614159050919050565b600033905090565b816004600083815260200190815260200160002060006101000a81548173ffffffffffffffffffffffffffffffffffffffff021916908373ffffffffffffffffffffffffffffffffffffffff160217905550808273ffffffffffffffffffffffffffffffffffffffff16610e9e83610737565b73ffffffffffffffffffffffffffffffffffffffff167f8c5be1e5ebec7d5bd14f71427d1e84f3dd0314c0f7b2291e5b200ac8c7c3b92560405160405180910390a45050565b6000610eef82610db7565b610f2e576040517f08c379a0000000000000000000000000000000000000000000000000000000008152600401610f2590612194565b60405180910390fd5b6000610f3983610737565b90508073ffffffffffffffffffffffffffffffffffffffff168473ffffffffffffffffffffffffffffffffffffffff161480610fa857508373ffffffffffffffffffffffffffffffffffffffff16610f9084610508565b73ffffffffffffffffffffffffffffffffffffffff16145b80610fb95750610fb88185610cb9565b5b91505092915050565b8273ffffffffffffffffffffffffffffffffffffffff16610fe282610737565b73ffffffffffffffffffffffffffffffffffffffff1614611038576040517f08c379a000000000000000000000000000000000000000000000000000000000815260040161102f90612294565b60405180910390fd5b600073ffffffffffffffffffffffffffffffffffffffff168273ffffffffffffffffffffffffffffffffffffffff1614156110a8576040517f08c379a000000000000000000000000000000000000000000000000000000000815260040161109f90612154565b60405180910390fd5b6110b383838361159e565b6110be600082610e2b565b6001600360008573ffffffffffffffffffffffffffffffffffffffff1673ffffffffffffffffffffffffffffffffffffffff168152602001908152602001600020600082825461110e9190612480565b925050819055506001600360008473ffffffffffffffffffffffffffffffffffffffff1673ffffffffffffffffffffffffffffffffffffffff168152602001908152602001600020600082825461116591906123f9565b92505081905550816002600083815260200190815260200160002060006101000a81548173ffffffffffffffffffffffffffffffffffffffff021916908373ffffffffffffffffffffffffffffffffffffffff160217905550808273ffffffffffffffffffffffffffffffffffffffff168473ffffffffffffffffffffffffffffffffffffffff167fddf252ad1be2c89b69c2b068fc378daa952ba7f163c4a11628f55a4df523b3ef60405160405180910390a4505050565b600081600001549050919050565b6001816000016000828254019250508190555050565b600073ffffffffffffffffffffffffffffffffffffffff168273ffffffffffffffffffffffffffffffffffffffff1614156112b2576040517f08c379a00000000000000000000000000000000000000000000000000000000081526004016112a990612234565b60405180910390fd5b6112bb81610db7565b156112fb576040517f08c379a00000000000000000000000000000000000000000000000000000000081526004016112f290612134565b60405180910390fd5b6113076000838361159e565b6001600360008473ffffffffffffffffffffffffffffffffffffffff1673ffffffffffffffffffffffffffffffffffffffff168152602001908152602001600020600082825461135791906123f9565b92505081905550816002600083815260200190815260200160002060006101000a81548173ffffffffffffffffffffffffffffffffffffffff021916908373ffffffffffffffffffffffffffffffffffffffff160217905550808273ffffffffffffffffffffffffffffffffffffffff16600073ffffffffffffffffffffffffffffffffffffffff167fddf252ad1be2c89b69c2b068fc378daa952ba7f163c4a11628f55a4df523b3ef60405160405180910390a45050565b61141982610db7565b611458576040517f08c379a000000000000000000000000000000000000000000000000000000000815260040161144f90612214565b60405180910390fd5b8060066000848152602001908152602001600020908051906020019061147f9291906118fa565b505050565b61148f848484610fc2565b61149b848484846115a3565b6114da576040517f08c379a00000000000000000000000000000000000000000000000000000000081526004016114d190612114565b60405180910390fd5b50505050565b606060405180602001604052806000815250905090565b606061150282610db7565b611541576040517f08c379a0000000000000000000000000000000000000000000000000000000008152600401611538906122b4565b60405180910390fd5b600061154b6114e0565b9050600081511161156b5760405180602001604052806000815250611596565b806115758461173a565b60405160200161158692919061204c565b6040516020818303038152906040525b915050919050565b505050565b60006115c48473ffffffffffffffffffffffffffffffffffffffff166118e7565b1561172d578373ffffffffffffffffffffffffffffffffffffffff1663150b7a026115ed610e23565b8786866040518563ffffffff1660e01b815260040161160f949392919061208b565b602060405180830381600087803b15801561162957600080fd5b505af192505050801561165a57506040513d601f19601f820116820180604052508101906116579190611cfa565b60015b6116dd573d806000811461168a576040519150601f19603f3d011682016040523d82523d6000602084013e61168f565b606091505b506000815114156116d5576040517f08c379a00000000000000000000000000000000000000000000000000000000081526004016116cc90612114565b60405180910390fd5b805181602001fd5b63150b7a0260e01b7bffffffffffffffffffffffffffffffffffffffffffffffffffffffff1916817bffffffffffffffffffffffffffffffffffffffffffffffffffffffff191614915050611732565b600190505b949350505050565b60606000821415611782576040518060400160405280600181526020017f300000000000000000000000000000000000000000000000000000000000000081525090506118e2565b600082905060005b600082146117b457808061179d906125cd565b915050600a826117ad919061244f565b915061178a565b60008167ffffffffffffffff8111156117f6577f4e487b7100000000000000000000000000000000000000000000000000000000600052604160045260246000fd5b6040519080825280601f01601f1916602001820160405280156118285781602001600182028036833780820191505090505b5090505b600085146118db576001826118419190612480565b9150600a856118509190612616565b603061185c91906123f9565b60f81b818381518110611898577f4e487b7100000000000000000000000000000000000000000000000000000000600052603260045260246000fd5b60200101907effffffffffffffffffffffffffffffffffffffffffffffffffffffffffffff1916908160001a905350600a856118d4919061244f565b945061182c565b8093505050505b919050565b600080823b905060008111915050919050565b8280546119069061256a565b90600052602060002090601f016020900481019282611928576000855561196f565b82601f1061194157805160ff191683800117855561196f565b8280016001018555821561196f579182015b8281111561196e578251825591602001919060010190611953565b5b50905061197c9190611980565b5090565b5b80821115611999576000816000905550600101611981565b5090565b60006119b06119ab84612354565b61232f565b9050828152602081018484840111156119c857600080fd5b6119d3848285612528565b509392505050565b60006119ee6119e984612385565b61232f565b905082815260208101848484011115611a0657600080fd5b611a11848285612528565b509392505050565b600081359050611a2881612b92565b92915050565b600081359050611a3d81612ba9565b92915050565b600081359050611a5281612bc0565b92915050565b600081519050611a6781612bc0565b92915050565b600082601f830112611a7e57600080fd5b8135611a8e84826020860161199d565b91505092915050565b600082601f830112611aa857600080fd5b8135611ab88482602086016119db565b91505092915050565b600081359050611ad081612bd7565b92915050565b600060208284031215611ae857600080fd5b6000611af684828501611a19565b91505092915050565b60008060408385031215611b1257600080fd5b6000611b2085828601611a19565b9250506020611b3185828601611a19565b9150509250929050565b600080600060608486031215611b5057600080fd5b6000611b5e86828701611a19565b9350506020611b6f86828701611a19565b9250506040611b8086828701611ac1565b9150509250925092565b60008060008060808587031215611ba057600080fd5b6000611bae87828801611a19565b9450506020611bbf87828801611a19565b9350506040611bd087828801611ac1565b925050606085013567ffffffffffffffff811115611bed57600080fd5b611bf987828801611a6d565b91505092959194509250565b60008060408385031215611c1857600080fd5b6000611c2685828601611a19565b9250506020611c3785828601611a2e565b9150509250929050565b60008060408385031215611c5457600080fd5b6000611c6285828601611a19565b925050602083013567ffffffffffffffff811115611c7f57600080fd5b611c8b85828601611a97565b9150509250929050565b60008060408385031215611ca857600080fd5b6000611cb685828601611a19565b9250506020611cc785828601611ac1565b9150509250929050565b600060208284031215611ce357600080fd5b6000611cf184828501611a43565b91505092915050565b600060208284031215611d0c57600080fd5b6000611d1a84828501611a58565b91505092915050565b600060208284031215611d3557600080fd5b6000611d4384828501611ac1565b91505092915050565b611d55816124b4565b82525050565b611d64816124c6565b82525050565b6000611d75826123b6565b611d7f81856123cc565b9350611d8f818560208601612537565b611d9881612703565b840191505092915050565b6000611dae826123c1565b611db881856123dd565b9350611dc8818560208601612537565b611dd181612703565b840191505092915050565b6000611de7826123c1565b611df181856123ee565b9350611e01818560208601612537565b80840191505092915050565b6000611e1a6032836123dd565b9150611e2582612714565b604082019050919050565b6000611e3d601c836123dd565b9150611e4882612763565b602082019050919050565b6000611e606024836123dd565b9150611e6b8261278c565b604082019050919050565b6000611e836019836123dd565b9150611e8e826127db565b602082019050919050565b6000611ea6602c836123dd565b9150611eb182612804565b604082019050919050565b6000611ec96038836123dd565b9150611ed482612853565b604082019050919050565b6000611eec602a836123dd565b9150611ef7826128a2565b604082019050919050565b6000611f0f6029836123dd565b9150611f1a826128f1565b604082019050919050565b6000611f32602e836123dd565b9150611f3d82612940565b604082019050919050565b6000611f556020836123dd565b9150611f608261298f565b602082019050919050565b6000611f786031836123dd565b9150611f83826129b8565b604082019050919050565b6000611f9b602c836123dd565b9150611fa682612a07565b604082019050919050565b6000611fbe6029836123dd565b9150611fc982612a56565b604082019050919050565b6000611fe1602f836123dd565b9150611fec82612aa5565b604082019050919050565b60006120046021836123dd565b915061200f82612af4565b604082019050919050565b60006120276031836123dd565b915061203282612b43565b604082019050919050565b6120468161251e565b82525050565b60006120588285611ddc565b91506120648284611ddc565b91508190509392505050565b60006020820190506120856000830184611d4c565b92915050565b60006080820190506120a06000830187611d4c565b6120ad6020830186611d4c565b6120ba604083018561203d565b81810360608301526120cc8184611d6a565b905095945050505050565b60006020820190506120ec6000830184611d5b565b92915050565b6000602082019050818103600083015261210c8184611da3565b905092915050565b6000602082019050818103600083015261212d81611e0d565b9050919050565b6000602082019050818103600083015261214d81611e30565b9050919050565b6000602082019050818103600083015261216d81611e53565b9050919050565b6000602082019050818103600083015261218d81611e76565b9050919050565b600060208201905081810360008301526121ad81611e99565b9050919050565b600060208201905081810360008301526121cd81611ebc565b9050919050565b600060208201905081810360008301526121ed81611edf565b9050919050565b6000602082019050818103600083015261220d81611f02565b9050919050565b6000602082019050818103600083015261222d81611f25565b9050919050565b6000602082019050818103600083015261224d81611f48565b9050919050565b6000602082019050818103600083015261226d81611f6b565b9050919050565b6000602082019050818103600083015261228d81611f8e565b9050919050565b600060208201905081810360008301526122ad81611fb1565b9050919050565b600060208201905081810360008301526122cd81611fd4565b9050919050565b600060208201905081810360008301526122ed81611ff7565b9050919050565b6000602082019050818103600083015261230d8161201a565b9050919050565b6000602082019050612329600083018461203d565b92915050565b600061233961234a565b9050612345828261259c565b919050565b6000604051905090565b600067ffffffffffffffff82111561236f5761236e6126d4565b5b61237882612703565b9050602081019050919050565b600067ffffffffffffffff8211156123a05761239f6126d4565b5b6123a982612703565b9050602081019050919050565b600081519050919050565b600081519050919050565b600082825260208201905092915050565b600082825260208201905092915050565b600081905092915050565b60006124048261251e565b915061240f8361251e565b9250827fffffffffffffffffffffffffffffffffffffffffffffffffffffffffffffffff0382111561244457612443612647565b5b828201905092915050565b600061245a8261251e565b91506124658361251e565b92508261247557612474612676565b5b828204905092915050565b600061248b8261251e565b91506124968361251e565b9250828210156124a9576124a8612647565b5b828203905092915050565b60006124bf826124fe565b9050919050565b60008115159050919050565b60007fffffffff0000000000000000000000000000000000000000000000000000000082169050919050565b600073ffffffffffffffffffffffffffffffffffffffff82169050919050565b6000819050919050565b82818337600083830152505050565b60005b8381101561255557808201518184015260208101905061253a565b83811115612564576000848401525b50505050565b6000600282049050600182168061258257607f821691505b60208210811415612596576125956126a5565b5b50919050565b6125a582612703565b810181811067ffffffffffffffff821117156125c4576125c36126d4565b5b80604052505050565b60006125d88261251e565b91507fffffffffffffffffffffffffffffffffffffffffffffffffffffffffffffffff82141561260b5761260a612647565b5b600182019050919050565b60006126218261251e565b915061262c8361251e565b92508261263c5761263b612676565b5b828206905092915050565b7f4e487b7100000000000000000000000000000000000000000000000000000000600052601160045260246000fd5b7f4e487b7100000000000000000000000000000000000000000000000000000000600052601260045260246000fd5b7f4e487b7100000000000000000000000000000000000000000000000000000000600052602260045260246000fd5b7f4e487b7100000000000000000000000000000000000000000000000000000000600052604160045260246000fd5b6000601f19601f8301169050919050565b7f4552433732313a207472616e7366657220746f206e6f6e20455243373231526560008201527f63656976657220696d706c656d656e7465720000000000000000000000000000602082015250565b7f4552433732313a20746f6b656e20616c7265616479206d696e74656400000000600082015250565b7f4552433732313a207472616e7366657220746f20746865207a65726f2061646460008201527f7265737300000000000000000000000000000000000000000000000000000000602082015250565b7f4552433732313a20617070726f766520746f2063616c6c657200000000000000600082015250565b7f4552433732313a206f70657261746f7220717565727920666f72206e6f6e657860008201527f697374656e7420746f6b656e0000000000000000000000000000000000000000602082015250565b7f4552433732313a20617070726f76652063616c6c6572206973206e6f74206f7760008201527f6e6572206e6f7220617070726f76656420666f7220616c6c0000000000000000602082015250565b7f4552433732313a2062616c616e636520717565727920666f7220746865207a6560008201527f726f206164647265737300000000000000000000000000000000000000000000602082015250565b7f4552433732313a206f776e657220717565727920666f72206e6f6e657869737460008201527f656e7420746f6b656e0000000000000000000000000000000000000000000000602082015250565b7f45524337323155524953746f726167653a2055524920736574206f66206e6f6e60008201527f6578697374656e7420746f6b656e000000000000000000000000000000000000602082015250565b7f4552433732313a206d696e7420746f20746865207a65726f2061646472657373600082015250565b7f45524337323155524953746f726167653a2055524920717565727920666f722060008201527f6e6f6e6578697374656e7420746f6b656e000000000000000000000000000000602082015250565b7f4552433732313a20617070726f76656420717565727920666f72206e6f6e657860008201527f697374656e7420746f6b656e0000000000000000000000000000000000000000602082015250565b7f4552433732313a207472616e73666572206f6620746f6b656e2074686174206960008201527f73206e6f74206f776e0000000000000000000000000000000000000000000000602082015250565b7f4552433732314d657461646174613a2055524920717565727920666f72206e6f60008201527f6e6578697374656e7420746f6b656e0000000000000000000000000000000000602082015250565b7f4552433732313a20617070726f76616c20746f2063757272656e74206f776e6560008201527f7200000000000000000000000000000000000000000000000000000000000000602082015250565b7f4552433732313a207472616e736665722063616c6c6572206973206e6f74206f60008201527f776e6572206e6f7220617070726f766564000000000000000000000000000000602082015250565b612b9b816124b4565b8114612ba657600080fd5b50565b612bb2816124c6565b8114612bbd57600080fd5b50565b612bc9816124d2565b8114612bd457600080fd5b50565b612be08161251e565b8114612beb57600080fd5b5056fea2646970667358221220a4e6728ae02f7831100e317ea26599397212afa870d24c8865613edb7dae28be64736f6c63430008040033",
  "immutableReferences": {},
  "source": "// SPDX-License-Identifier: GNU3\r\npragma solidity >=0.4.22 <=0.8.6;\r\n\r\nimport \"@openzeppelin/contracts/token/ERC721/ERC721.sol\";\r\nimport \"@openzeppelin/contracts/token/ERC721/extensions/ERC721URIStorage.sol\";\r\nimport \"@openzeppelin/contracts/utils/Counters.sol\";\r\n\r\ncontract IBidCNFT is ERC721URIStorage  {\r\n    using Counters for Counters.Counter;\r\n    Counters.Counter private _tokenIds;\r\n\r\n    constructor() ERC721(\"IBidCNFT\", \"BID\") {}\r\n\r\n    function createBid(address player, string memory tokenJSON) public returns (uint256){\r\n        _tokenIds.increment();\r\n        uint256 bidId = _tokenIds.current();\r\n        _mint(player, bidId);\r\n        _setTokenURI(bidId, tokenJSON);\r\n\r\n        return bidId;\r\n    }\r\n\r\n    function exists(uint256 nftId) public view returns (bool) {\r\n        return _exists(nftId);\r\n    }\r\n\r\n    function lastCreatedNft() public view returns(uint256){\r\n        return _tokenIds.current();\r\n    }\r\n\r\n    function getMe() public view returns(address){\r\n        return msg.sender;\r\n    }\r\n}",
  "sourcePath": "D:\\BUREAU\\Travail\\ESGI\\3ESGI IBC\\Projet Annuel\\PA_2K21\\contracts\\IBidCNFT.sol",
  "compiler": {
    "name": "solc",
    "version": "0.8.4+commit.c7e474f2.Emscripten.clang"
  },
  "schemaVersion": "3.4.1",
  "updatedAt": "2021-07-29T19:23:43.914Z",
  "networkType": "ethereum",
  "devdoc": {
    "kind": "dev",
    "methods": {
      "approve(address,uint256)": {
        "details": "See {IERC721-approve}."
      },
      "balanceOf(address)": {
        "details": "See {IERC721-balanceOf}."
      },
      "getApproved(uint256)": {
        "details": "See {IERC721-getApproved}."
      },
      "isApprovedForAll(address,address)": {
        "details": "See {IERC721-isApprovedForAll}."
      },
      "name()": {
        "details": "See {IERC721Metadata-name}."
      },
      "ownerOf(uint256)": {
        "details": "See {IERC721-ownerOf}."
      },
      "safeTransferFrom(address,address,uint256)": {
        "details": "See {IERC721-safeTransferFrom}."
      },
      "safeTransferFrom(address,address,uint256,bytes)": {
        "details": "See {IERC721-safeTransferFrom}."
      },
      "setApprovalForAll(address,bool)": {
        "details": "See {IERC721-setApprovalForAll}."
      },
      "supportsInterface(bytes4)": {
        "details": "See {IERC165-supportsInterface}."
      },
      "symbol()": {
        "details": "See {IERC721Metadata-symbol}."
      },
      "tokenURI(uint256)": {
        "details": "See {IERC721Metadata-tokenURI}."
      },
      "transferFrom(address,address,uint256)": {
        "details": "See {IERC721-transferFrom}."
      }
    },
    "version": 1
  },
  "userdoc": {
    "kind": "user",
    "methods": {},
    "version": 1
  }
}